{
  "_format": "hh-sol-artifact-1",
  "contractName": "TenderChain",
  "sourceName": "contracts/TenderChain.sol",
  "abi": [
    {
      "anonymous": false,
      "inputs": [
        {
          "indexed": true,
          "internalType": "uint256",
          "name": "id",
          "type": "uint256"
        },
        {
          "indexed": true,
          "internalType": "address",
          "name": "creator",
          "type": "address"
        },
        {
          "indexed": false,
          "internalType": "uint256",
          "name": "timestamp",
          "type": "uint256"
        }
      ],
      "name": "TenderCancelled",
      "type": "event"
    },
    {
      "anonymous": false,
      "inputs": [
        {
          "indexed": true,
          "internalType": "uint256",
          "name": "id",
          "type": "uint256"
        },
        {
          "indexed": true,
          "internalType": "address",
          "name": "bidder",
          "type": "address"
        },
        {
          "indexed": false,
          "internalType": "uint256",
          "name": "timestamp",
          "type": "uint256"
        }
      ],
      "name": "TenderCompleted",
      "type": "event"
    },
    {
      "anonymous": false,
      "inputs": [
        {
          "indexed": true,
          "internalType": "uint256",
          "name": "id",
          "type": "uint256"
        },
        {
          "indexed": false,
          "internalType": "string",
          "name": "title",
          "type": "string"
        },
        {
          "indexed": false,
          "internalType": "uint256",
          "name": "budget",
          "type": "uint256"
        },
        {
          "indexed": true,
          "internalType": "address",
          "name": "creator",
          "type": "address"
        },
        {
          "indexed": false,
          "internalType": "uint256",
          "name": "expiresAt",
          "type": "uint256"
        }
      ],
      "name": "TenderCreated",
      "type": "event"
    },
    {
      "anonymous": false,
      "inputs": [
        {
          "indexed": true,
          "internalType": "uint256",
          "name": "id",
          "type": "uint256"
        },
        {
          "indexed": true,
          "internalType": "address",
          "name": "bidder",
          "type": "address"
        },
        {
          "indexed": false,
          "internalType": "uint256",
          "name": "timestamp",
          "type": "uint256"
        }
      ],
      "name": "TenderTaken",
      "type": "event"
    },
    {
      "inputs": [
        {
          "internalType": "uint256",
          "name": "_id",
          "type": "uint256"
        }
      ],
      "name": "cancelTender",
      "outputs": [],
      "stateMutability": "nonpayable",
      "type": "function"
    },
    {
      "inputs": [
        {
          "internalType": "uint256",
          "name": "_id",
          "type": "uint256"
        }
      ],
      "name": "completeTender",
      "outputs": [],
      "stateMutability": "nonpayable",
      "type": "function"
    },
    {
      "inputs": [
        {
          "internalType": "string",
          "name": "_title",
          "type": "string"
        },
        {
          "internalType": "string",
          "name": "_description",
          "type": "string"
        },
        {
          "internalType": "uint256",
          "name": "_budget",
          "type": "uint256"
        },
        {
          "internalType": "uint256",
          "name": "_deadline",
          "type": "uint256"
        },
        {
          "internalType": "uint256",
          "name": "_distance",
          "type": "uint256"
        },
        {
          "internalType": "uint256",
          "name": "_weight",
          "type": "uint256"
        },
        {
          "internalType": "string",
          "name": "_cargoType",
          "type": "string"
        },
        {
          "internalType": "uint256",
          "name": "_urgencyDays",
          "type": "uint256"
        },
        {
          "internalType": "uint256",
          "name": "_expirationMinutes",
          "type": "uint256"
        }
      ],
      "name": "createTender",
      "outputs": [
        {
          "internalType": "uint256",
          "name": "",
          "type": "uint256"
        }
      ],
      "stateMutability": "nonpayable",
      "type": "function"
    },
    {
      "inputs": [],
      "name": "getActiveTenders",
      "outputs": [
        {
          "internalType": "uint256[]",
          "name": "",
          "type": "uint256[]"
        }
      ],
      "stateMutability": "view",
      "type": "function"
    },
    {
      "inputs": [
        {
          "internalType": "uint256",
          "name": "_id",
          "type": "uint256"
        }
      ],
      "name": "getTender",
      "outputs": [
        {
          "internalType": "uint256",
          "name": "id",
          "type": "uint256"
        },
        {
          "internalType": "string",
          "name": "title",
          "type": "string"
        },
        {
          "internalType": "string",
          "name": "description",
          "type": "string"
        },
        {
          "internalType": "uint256",
          "name": "budget",
          "type": "uint256"
        },
        {
          "internalType": "uint256",
          "name": "deadline",
          "type": "uint256"
        },
        {
          "internalType": "uint256",
          "name": "distance",
          "type": "uint256"
        },
        {
          "internalType": "uint256",
          "name": "weight",
          "type": "uint256"
        },
        {
          "internalType": "string",
          "name": "cargoType",
          "type": "string"
        },
        {
          "internalType": "uint256",
          "name": "urgencyDays",
          "type": "uint256"
        },
        {
          "internalType": "address",
          "name": "creator",
          "type": "address"
        },
        {
          "internalType": "address",
          "name": "bidder",
          "type": "address"
        },
        {
          "internalType": "enum TenderChain.TenderStatus",
          "name": "status",
          "type": "uint8"
        },
        {
          "internalType": "uint256",
          "name": "createdAt",
          "type": "uint256"
        },
        {
          "internalType": "uint256",
          "name": "expiresAt",
          "type": "uint256"
        }
      ],
      "stateMutability": "view",
      "type": "function"
    },
    {
      "inputs": [
        {
          "internalType": "uint256",
          "name": "_id",
          "type": "uint256"
        }
      ],
      "name": "takeTender",
      "outputs": [],
      "stateMutability": "nonpayable",
      "type": "function"
    },
    {
      "inputs": [],
      "name": "tenderCount",
      "outputs": [
        {
          "internalType": "uint256",
          "name": "",
          "type": "uint256"
        }
      ],
      "stateMutability": "view",
      "type": "function"
    },
    {
      "inputs": [
        {
          "internalType": "uint256",
          "name": "",
          "type": "uint256"
        }
      ],
      "name": "tenders",
      "outputs": [
        {
          "internalType": "uint256",
          "name": "id",
          "type": "uint256"
        },
        {
          "internalType": "string",
          "name": "title",
          "type": "string"
        },
        {
          "internalType": "string",
          "name": "description",
          "type": "string"
        },
        {
          "internalType": "uint256",
          "name": "budget",
          "type": "uint256"
        },
        {
          "internalType": "uint256",
          "name": "deadline",
          "type": "uint256"
        },
        {
          "internalType": "uint256",
          "name": "distance",
          "type": "uint256"
        },
        {
          "internalType": "uint256",
          "name": "weight",
          "type": "uint256"
        },
        {
          "internalType": "string",
          "name": "cargoType",
          "type": "string"
        },
        {
          "internalType": "uint256",
          "name": "urgencyDays",
          "type": "uint256"
        },
        {
          "internalType": "address",
          "name": "creator",
          "type": "address"
        },
        {
          "internalType": "address",
          "name": "bidder",
          "type": "address"
        },
        {
          "internalType": "enum TenderChain.TenderStatus",
          "name": "status",
          "type": "uint8"
        },
        {
          "internalType": "uint256",
          "name": "createdAt",
          "type": "uint256"
        },
        {
          "internalType": "uint256",
          "name": "expiresAt",
          "type": "uint256"
        }
      ],
      "stateMutability": "view",
      "type": "function"
    }
  ],
  "bytecode": "0x60808060405234610016576110e8908161001c8239f35b600080fdfe6080604052600436101561001257600080fd5b60003560e01c80630585c25e14610d655780631f05877614610d475780632ac6c78514610ba45780633a74e07014610a8b578063465e1def146109e857806357577b83146108cd578063659abb55146107605763666b5f371461007457600080fd5b3461075b5761012036600319011261075b5760043567ffffffffffffffff811161075b576100a6903690600401610ff0565b60243567ffffffffffffffff811161075b576100c6903690600401610ff0565b9060c43567ffffffffffffffff811161075b576100e7903690600401610ff0565b90610104359080511561072257604435156106dd57426064351115610698576001549261011384611047565b600155603c830292808404603c149015171561068257824201421161068257604051946101c0860186811067ffffffffffffffff8211176104cc5760405284865282602087015260408601526044356060860152606435608086015260843560a086015260a43560c086015260e085015260e4356101008501523361012085015260006101408501526000610160850152426101808501528142016101a0850152826000526000602052604060002084518155602085015180519067ffffffffffffffff82116104cc5781906101ec6001850154610eee565b601f811161062f575b50602090601f83116001146105bd576000926105b2575b50508160011b916000199060031b1c19161760018201555b604085015180519067ffffffffffffffff82116104cc57819061024a6002850154610eee565b601f811161055f575b50602090601f83116001146104ed576000926104e2575b50508160011b916000199060031b1c19161760028201555b606085015160038201556080850151600482015560a0850151600582015560c0850151600682015560e085015180519067ffffffffffffffff82116104cc5781906102d06007850154610eee565b601f8111610479575b50602090601f831160011461040c57600092610401575b50508160011b916000199060031b1c19161760078201555b61010085015160088201556101208501516009820180546001600160a01b0319166001600160a01b03928316179055610140860151600a830180546101608901519195909490939092169060058110156103eb5760209888967f3dbf6374bde9016468d4624c62c547cf43ae524b88d2ea7e255480407db3758c96600c946101a09460ff60a01b9060a01b16916affffffffffffffffffffff60a81b1617179055610180810151600b85015501519101556103ce60405191606083526060830190610e13565b9360443587830152420160408201528033940390a3604051908152f35b634e487b7160e01b600052602160045260246000fd5b0151905038806102f0565b600785016000908152602081209350601f198516905b8181106104615750908460019594939210610448575b505050811b016007820155610308565b015160001960f88460031b161c19169055388080610438565b92936020600181928786015181550195019301610422565b909150600784016000526020600020601f840160051c8101602085106104c5575b90849392915b601f830160051c820181106104b65750506102d9565b600081558594506001016104a0565b508061049a565b634e487b7160e01b600052604160045260246000fd5b01519050388061026a565b9250600284016000526020600020906000935b601f1984168510610544576001945083601f1981161061052b575b505050811b016002820155610282565b015160001960f88460031b161c1916905538808061051b565b81810151835560209485019460019093019290910190610500565b909150600284016000526020600020601f840160051c8101602085106105ab575b90849392915b601f830160051c8201811061059c575050610253565b60008155859450600101610586565b5080610580565b01519050388061020c565b9250600184016000526020600020906000935b601f1984168510610614576001945083601f198116106105fb575b505050811b016001820155610224565b015160001960f88460031b161c191690553880806105eb565b818101518355602094850194600190930192909101906105d0565b909150600184016000526020600020601f840160051c81016020851061067b575b90849392915b601f830160051c8201811061066c5750506101f5565b60008155859450600101610656565b5080610650565b634e487b7160e01b600052601160045260246000fd5b60405162461bcd60e51b815260206004820152601e60248201527f446561646c696e65206d75737420626520696e207468652066757475726500006044820152606490fd5b60405162461bcd60e51b815260206004820152601d60248201527f427564676574206d7573742062652067726561746572207468616e20300000006044820152606490fd5b60405162461bcd60e51b8152602060048201526011602482015270151a5d1b19481a5cc81c995c5d5a5c9959607a1b6044820152606490fd5b600080fd5b3461075b5760208060031936011261075b5760043560008181528083526040902060098101546001600160a01b031661079a811515611056565b331461088857600a81019081549060ff8260a01c1660058110156103eb5761084e57600c0154421015610814576001600160a81b0319163360ff60a01b19811691909117600160a11b1790915560405142815290927f2d219e8fc54d0eaeb33a8ba01ccc277da4ac9011e9dd7e7b4a80a0258edc0a9b91a3005b60405162461bcd60e51b815260048101859052601260248201527115195b99195c881a185cc8195e1c1a5c995960721b6044820152606490fd5b60405162461bcd60e51b81526004810186905260126024820152712a32b73232b91034b9903737ba1037b832b760711b6044820152606490fd5b60405162461bcd60e51b815260048101849052601b60248201527f43616e6e6f742074616b6520796f7572206f776e2074656e64657200000000006044820152606490fd5b3461075b57602036600319011261075b576004356000818152602081905260409020600a018054336001600160a01b038216036109995760ff8160a01c1660058110156103eb5760020361095b5760ff60a01b1916600360a01b1790556040514281523391907fc17b163892115f1fb664bffa8733edbcb472908a5b8a8858085c2687729b982a90602090a3005b60405162461bcd60e51b815260206004820152601660248201527515195b99195c881b5d5cdd08189948185dd85c99195960521b6044820152606490fd5b60405162461bcd60e51b815260206004820152602160248201527f4f6e6c792061737369676e6564206269646465722063616e20636f6d706c65746044820152606560f81b6064820152608490fd5b3461075b57602036600319011261075b57600435600052600060205260406000208054610a87610a1a60018401610f4a565b92610a2760028201610f4a565b90600381015460048201546005830154906006840154610a4960078601610f4a565b60088601549160018060a01b03948560098901541694600a89015497600c600b8b01549a01549a6040519e8f9e8f9a60ff8d60a01c169c169a610e53565b0390f35b3461075b57602036600319011261075b57600435600081815260208190526040902060098101546001600160a01b03163303610b5f57600a01805460ff8160a01c1660058110156103eb57610b1a5760ff60a01b1916600160a21b1790556040514281523391907f121260d8e5a90e25b8efcafc18268061d5e0ba4b7b58b6a9db4a60048e3582bb90602090a3005b60405162461bcd60e51b815260206004820152601c60248201527f43616e206f6e6c792063616e63656c206f70656e2074656e64657273000000006044820152606490fd5b60405162461bcd60e51b815260206004820152601760248201527f4f6e6c792063726561746f722063616e2063616e63656c0000000000000000006044820152606490fd5b3461075b57600036600319011261075b57600180546000805b828110610cdb575082610be8610bd28361109a565b92610be06040519485610f28565b80845261109a565b6020838101949091601f19013686376000805b828210610c3d5750505060405192818401908285525180915260408401949160005b828110610c2a5785870386f35b8351875295810195928101928401610c1d565b816000979597969496526000865260ff600a6040600020015460a01c16600590818110156103eb571580610cc2575b610c88575b5090610c7c90611047565b90959395949294610bfb565b8451821015610cac57818388610c7c94610ca6941b88010152611047565b90610c71565b634e487b7160e01b600052603260045260246000fd5b508260005260008752600c604060002001544210610c6c565b8060005260206000815260ff600a6040600020015460a01c1660058110156103eb57159081610d2e575b50610d19575b610d1490611047565b610bbd565b90610d26610d1491611047565b919050610d0b565b6000915082825252600c60406000200154421085610d05565b3461075b57600036600319011261075b576020600154604051908152f35b3461075b57602036600319011261075b576004356000526000602052604060002060018060a01b03610a878160098401541691610da3831515611056565b835492600385015494600481015492600582015492600683015492600881015490600a81015494600b82015496600c83015498610de260018501610f4a565b9c610dfb6007610df460028801610f4a565b9601610f4a565b946040519e8f9e8f9a60ff8d60a01c169c169a610e53565b919082519283825260005b848110610e3f575050826000602080949584010152601f8019910116010190565b602081830181015184830182015201610e1e565b9a97949192989e9d9c9998610e80610eb098959794610e8e938e528d6101c0908160208201520190610e13565b8c810360408e015290610e13565b9460608b015260808a015260a089015260c088015286820360e0880152610e13565b6101008501989098526001600160a01b039182166101208501521661014083015260058310156103eb576101a0926101608301526101808201520152565b90600182811c92168015610f1e575b6020831014610f0857565b634e487b7160e01b600052602260045260246000fd5b91607f1691610efd565b90601f8019910116810190811067ffffffffffffffff8211176104cc57604052565b9060405191826000825492610f5e84610eee565b908184526001948581169081600014610fcd5750600114610f8a575b5050610f8892500383610f28565b565b9093915060005260209081600020936000915b818310610fb5575050610f8893508201013880610f7a565b85548884018501529485019487945091830191610f9d565b915050610f8894506020925060ff191682840152151560051b8201013880610f7a565b81601f8201121561075b5780359067ffffffffffffffff82116104cc5760405192611025601f8401601f191660200185610f28565b8284526020838301011161075b57816000926020809301838601378301015290565b60001981146106825760010190565b1561105d57565b60405162461bcd60e51b815260206004820152601560248201527415195b99195c88191bd95cc81b9bdd08195e1a5cdd605a1b6044820152606490fd5b67ffffffffffffffff81116104cc5760051b6020019056fea264697066735822122032122b3ece22ffba9be8c5860bedcbc5384e2eb2b5372af268acdb52e59070c664736f6c63430008140033",
  "linkReferences": {},
  "deployedLinkReferences": {}
}