{
  "_format": "hh-sol-artifact-1",
  "contractName": "Tender",
  "sourceName": "contracts/Tender.sol",
  "abi": [
    {
      "anonymous": false,
      "inputs": [
        {
          "indexed": false,
          "internalType": "uint256",
          "name": "tenderId",
          "type": "uint256"
        },
        {
          "indexed": false,
          "internalType": "address",
          "name": "bidder",
          "type": "address"
        }
      ],
      "name": "BidCommitted",
      "type": "event"
    },
    {
      "anonymous": false,
      "inputs": [
        {
          "indexed": false,
          "internalType": "uint256",
          "name": "tenderId",
          "type": "uint256"
        },
        {
          "indexed": false,
          "internalType": "address",
          "name": "bidder",
          "type": "address"
        },
        {
          "indexed": false,
          "internalType": "uint256",
          "name": "bidAmount",
          "type": "uint256"
        }
      ],
      "name": "BidRevealed",
      "type": "event"
    },
    {
      "anonymous": false,
      "inputs": [
        {
          "indexed": false,
          "internalType": "uint256",
          "name": "tenderId",
          "type": "uint256"
        },
        {
          "indexed": false,
          "internalType": "address",
          "name": "winner",
          "type": "address"
        },
        {
          "indexed": false,
          "internalType": "uint256",
          "name": "winningBid",
          "type": "uint256"
        }
      ],
      "name": "TenderClosed",
      "type": "event"
    },
    {
      "anonymous": false,
      "inputs": [
        {
          "indexed": false,
          "internalType": "uint256",
          "name": "tenderId",
          "type": "uint256"
        },
        {
          "indexed": false,
          "internalType": "uint256",
          "name": "distance",
          "type": "uint256"
        },
        {
          "indexed": false,
          "internalType": "uint256",
          "name": "weight",
          "type": "uint256"
        },
        {
          "indexed": false,
          "internalType": "string",
          "name": "cargoType",
          "type": "string"
        },
        {
          "indexed": false,
          "internalType": "uint256",
          "name": "urgencyDays",
          "type": "uint256"
        },
        {
          "indexed": false,
          "internalType": "uint256",
          "name": "commitEnd",
          "type": "uint256"
        },
        {
          "indexed": false,
          "internalType": "uint256",
          "name": "revealEnd",
          "type": "uint256"
        },
        {
          "indexed": false,
          "internalType": "address",
          "name": "creator",
          "type": "address"
        }
      ],
      "name": "TenderCreated",
      "type": "event"
    },
    {
      "inputs": [
        {
          "internalType": "uint256",
          "name": "",
          "type": "uint256"
        },
        {
          "internalType": "address",
          "name": "",
          "type": "address"
        }
      ],
      "name": "bids",
      "outputs": [
        {
          "internalType": "bytes32",
          "name": "commitHash",
          "type": "bytes32"
        },
        {
          "internalType": "uint256",
          "name": "revealedBid",
          "type": "uint256"
        },
        {
          "internalType": "bool",
          "name": "isRevealed",
          "type": "bool"
        }
      ],
      "stateMutability": "view",
      "type": "function"
    },
    {
      "inputs": [
        {
          "internalType": "uint256",
          "name": "tenderId",
          "type": "uint256"
        }
      ],
      "name": "closeTender",
      "outputs": [],
      "stateMutability": "nonpayable",
      "type": "function"
    },
    {
      "inputs": [
        {
          "internalType": "uint256",
          "name": "tenderId",
          "type": "uint256"
        },
        {
          "internalType": "bytes32",
          "name": "bidHash",
          "type": "bytes32"
        }
      ],
      "name": "commitBid",
      "outputs": [],
      "stateMutability": "nonpayable",
      "type": "function"
    },
    {
      "inputs": [
        {
          "internalType": "uint256",
          "name": "distance",
          "type": "uint256"
        },
        {
          "internalType": "uint256",
          "name": "weight",
          "type": "uint256"
        },
        {
          "internalType": "string",
          "name": "cargoType",
          "type": "string"
        },
        {
          "internalType": "uint256",
          "name": "urgencyDays",
          "type": "uint256"
        },
        {
          "internalType": "uint256",
          "name": "commitEnd",
          "type": "uint256"
        },
        {
          "internalType": "uint256",
          "name": "revealEnd",
          "type": "uint256"
        }
      ],
      "name": "createTender",
      "outputs": [],
      "stateMutability": "nonpayable",
      "type": "function"
    },
    {
      "inputs": [
        {
          "internalType": "uint256",
          "name": "tenderId",
          "type": "uint256"
        }
      ],
      "name": "getTenderDetails",
      "outputs": [
        {
          "internalType": "uint256",
          "name": "distance",
          "type": "uint256"
        },
        {
          "internalType": "uint256",
          "name": "weight",
          "type": "uint256"
        },
        {
          "internalType": "string",
          "name": "cargoType",
          "type": "string"
        },
        {
          "internalType": "uint256",
          "name": "urgencyDays",
          "type": "uint256"
        },
        {
          "internalType": "uint256",
          "name": "commitEnd",
          "type": "uint256"
        },
        {
          "internalType": "uint256",
          "name": "revealEnd",
          "type": "uint256"
        },
        {
          "internalType": "address",
          "name": "creator",
          "type": "address"
        },
        {
          "internalType": "bool",
          "name": "isActive",
          "type": "bool"
        }
      ],
      "stateMutability": "view",
      "type": "function"
    },
    {
      "inputs": [],
      "name": "nextTenderId",
      "outputs": [
        {
          "internalType": "uint256",
          "name": "",
          "type": "uint256"
        }
      ],
      "stateMutability": "view",
      "type": "function"
    },
    {
      "inputs": [
        {
          "internalType": "uint256",
          "name": "tenderId",
          "type": "uint256"
        },
        {
          "internalType": "uint256",
          "name": "bidAmount",
          "type": "uint256"
        },
        {
          "internalType": "bytes32",
          "name": "secret",
          "type": "bytes32"
        }
      ],
      "name": "revealBid",
      "outputs": [],
      "stateMutability": "nonpayable",
      "type": "function"
    },
    {
      "inputs": [
        {
          "internalType": "uint256",
          "name": "",
          "type": "uint256"
        }
      ],
      "name": "tenders",
      "outputs": [
        {
          "internalType": "uint256",
          "name": "distance",
          "type": "uint256"
        },
        {
          "internalType": "uint256",
          "name": "weight",
          "type": "uint256"
        },
        {
          "internalType": "string",
          "name": "cargoType",
          "type": "string"
        },
        {
          "internalType": "uint256",
          "name": "urgencyDays",
          "type": "uint256"
        },
        {
          "internalType": "uint256",
          "name": "commitEnd",
          "type": "uint256"
        },
        {
          "internalType": "uint256",
          "name": "revealEnd",
          "type": "uint256"
        },
        {
          "internalType": "address",
          "name": "creator",
          "type": "address"
        },
        {
          "internalType": "bool",
          "name": "isActive",
          "type": "bool"
        }
      ],
      "stateMutability": "view",
      "type": "function"
    }
  ],
  "bytecode": "0x6080806040523461001b576001600055610c2e90816100218239f35b600080fdfe6080604052600436101561001257600080fd5b60003560e01c8062cda3da1461092f5780633f1ffcec146108c6578063465e1def146108595780634d380a0d1461067c57806353ee895d146105cd578063667c1a24146105af5780638766a1421461014a57639468cb611461007357600080fd5b3461014557604036600319011261014557600435806000526020600181526100a860ff60066040600020015460a01c16610bb8565b816000526001815260046040600020015442101561010c57816040917f0934ea4de468dcd0d9a335c5f97aa77955310c29631c93fbd01d95a00242ec41936000526002815282600020336000528152602435836000205582519182523390820152a1005b6064906040519062461bcd60e51b82526004820152601260248201527110dbdb5b5a5d081c1a185cd948195b99195960721b6044820152fd5b600080fd5b346101455760c03660031901126101455760443567ffffffffffffffff8111610145573660238201121561014557806004013567ffffffffffffffff811161046f57604051916101a4601f8301601f191660200184610a62565b81835236602483830101116101455781600092602460209301838601378301015242608435111561056a5760843560a435111561052557602435156104e0576004351561049b5760005490600019821461048557600182016000556040519161020c83610a45565b600435835260243560208401528160408401526064356060840152608435608084015260a43560a08401523360c0840152600160e08401528060005260016020526040600020928051845560208101516001850155604081015180519067ffffffffffffffff821161046f576102856002870154610a0b565b601f8111610428575b50602090601f83116001146103945791807f37e5632d3f3d3b36e8c2e626ec9c7cfefd048fa37f528271eaaca1c91fa10c0a9792600694600092610389575b50508160011b916000199060031b1c19161760028201555b606083015160038201556080830151600482015560a08301516005820155019060018060a01b0360c08201511682549160e060ff60a01b910151151560a01b16916affffffffffffffffffffff60a81b1617179055610366604051928392835260043560208401526024356040840152610100806060850152830190610b2a565b606435608083015260843560a083015260a43560c08301523360e08301520390a1005b0151905088806102cd565b906002870160005260206000209160005b601f19851681106104105750927f37e5632d3f3d3b36e8c2e626ec9c7cfefd048fa37f528271eaaca1c91fa10c0a979260019260069583601f198116106103f7575b505050811b0160028201556102e5565b015160001960f88460031b161c191690558880806103e7565b919260206001819286850151815501940192016103a5565b600287016000526020600020601f840160051c810160208510610468575b601f830160051c8201811061045c57505061028e565b60008155600101610446565b5080610446565b634e487b7160e01b600052604160045260246000fd5b634e487b7160e01b600052601160045260246000fd5b60405162461bcd60e51b815260206004820152601960248201527f44697374616e6365206d75737420626520706f736974697665000000000000006044820152606490fd5b60405162461bcd60e51b815260206004820152601760248201527f576569676874206d75737420626520706f7369746976650000000000000000006044820152606490fd5b60405162461bcd60e51b815260206004820152601b60248201527f52657665616c206d75737420626520616674657220636f6d6d697400000000006044820152606490fd5b60405162461bcd60e51b815260206004820152601c60248201527f436f6d6d697420656e64206d75737420626520696e20667574757265000000006044820152606490fd5b34610145576000366003190112610145576020600054604051908152f35b3461014557602036600319011261014557600435600052600160205260406000206040516105fa81610a45565b815481526106786001830154916020810192835261061a60028501610a84565b93846040830152600381015490816060840152600481015480608085015260066005830154928360a087015201549260ff60018060a01b038516948560c088015260a01c161515948560e08201525196519760405198899889610b6a565b0390f35b3461014557606036600319011261014557600435602435816000526020600181526106b460ff60066040600020015460a01c16610bb8565b8260005260018152600460406000200154421061081c5782600052600181526005604060002001544210156107e35760405181810190838252604435604082015260408152606081019181831067ffffffffffffffff84111761046f57826040528151902085600052600284526040600020336000528452604060002054036107b3577f86d2fbc9069d34216ebc65b38ce840528d3f8cac0c86d2aaa7ab6a9db8bc35d360608686868260005260028152604060002033600052815281600160406000200155826000526002815260406000203360005281526002604060002001600160ff1982541617905560405192835233908301526040820152a1005b60a46d125b9d985b1a59081c995d99585b60921b9160649462461bcd60e51b855285820152600e60848201520152fd5b6064906040519062461bcd60e51b82526004820152601260248201527114995d99585b081c1a185cd948195b99195960721b6044820152fd5b6064906040519062461bcd60e51b82526004820152601660248201527510dbdb5b5a5d081c1a185cd9481b9bdd08195b99195960521b6044820152fd5b34610145576020366003190112610145576004356000526001602052604060002080549061067860018201549161089260028201610a84565b936003820154916004810154600660058301549201549360405197889760ff8760a01c169660018060a01b03169589610b6a565b34610145576040366003190112610145576024356001600160a01b038116908190036101455760043560005260026020526040600020906000526020526060604060002080549060ff600260018301549201541690604051928352602083015215156040820152f35b34610145576020806003193601126101455760043590816000526001815261096460ff60066040600020015460a01c16610bb8565b816000526001815260056040600020015442106109ce578160006060927f6a8da3e80c8077fe06cc6c3f48b5c446dc3cd31ea4f93b87799de1498dfd6aa1948252600181526006604083200160ff60a01b19815416905560405192835282015260006040820152a1005b6064906040519062461bcd60e51b82526004820152601660248201527514995d99585b081c1a185cd9481b9bdd08195b99195960521b6044820152fd5b90600182811c92168015610a3b575b6020831014610a2557565b634e487b7160e01b600052602260045260246000fd5b91607f1691610a1a565b610100810190811067ffffffffffffffff82111761046f57604052565b90601f8019910116810190811067ffffffffffffffff82111761046f57604052565b9060405191826000825492610a9884610a0b565b908184526001948581169081600014610b075750600114610ac4575b5050610ac292500383610a62565b565b9093915060005260209081600020936000915b818310610aef575050610ac293508201013880610ab4565b85548884018501529485019487945091830191610ad7565b915050610ac294506020925060ff191682840152151560051b8201013880610ab4565b919082519283825260005b848110610b56575050826000602080949584010152601f8019910116010190565b602081830181015184830182015201610b35565b9693989794919260e09693610b9192895260208901526101008060408a0152880190610b2a565b6060870198909852608086015260a08501526001600160a01b031660c08401521515910152565b15610bbf57565b60405162461bcd60e51b815260206004820152601160248201527054656e646572206e6f742061637469766560781b6044820152606490fdfea2646970667358221220cd0199781a226a28a566e78ff2c9e0c25e7c0d5f82bb6594fd0d5d8c23d5290e64736f6c63430008140033",
  "linkReferences": {},
  "deployedLinkReferences": {}
}