{"contracts/TenderChain.sol":{"TenderChain":{"abi":[{"anonymous":false,"inputs":[{"indexed":true,"internalType":"uint256","name":"id","type":"uint256"},{"indexed":true,"internalType":"address","name":"creator","type":"address"},{"indexed":false,"internalType":"uint256","name":"timestamp","type":"uint256"}],"name":"TenderCancelled","type":"event"},{"anonymous":false,"inputs":[{"indexed":true,"internalType":"uint256","name":"id","type":"uint256"},{"indexed":true,"internalType":"address","name":"bidder","type":"address"},{"indexed":false,"internalType":"uint256","name":"timestamp","type":"uint256"}],"name":"TenderCompleted","type":"event"},{"anonymous":false,"inputs":[{"indexed":true,"internalType":"uint256","name":"id","type":"uint256"},{"indexed":false,"internalType":"string","name":"title","type":"string"},{"indexed":false,"internalType":"uint256","name":"budget","type":"uint256"},{"indexed":true,"internalType":"address","name":"creator","type":"address"},{"indexed":false,"internalType":"uint256","name":"expiresAt","type":"uint256"}],"name":"TenderCreated","type":"event"},{"anonymous":false,"inputs":[{"indexed":true,"internalType":"uint256","name":"id","type":"uint256"},{"indexed":true,"internalType":"address","name":"bidder","type":"address"},{"indexed":false,"internalType":"uint256","name":"timestamp","type":"uint256"}],"name":"TenderTaken","type":"event"},{"inputs":[{"internalType":"uint256","name":"_id","type":"uint256"}],"name":"cancelTender","outputs":[],"stateMutability":"nonpayable","type":"function"},{"inputs":[{"internalType":"uint256","name":"_id","type":"uint256"}],"name":"completeTender","outputs":[],"stateMutability":"nonpayable","type":"function"},{"inputs":[{"internalType":"string","name":"_title","type":"string"},{"internalType":"string","name":"_description","type":"string"},{"internalType":"uint256","name":"_budget","type":"uint256"},{"internalType":"uint256","name":"_deadline","type":"uint256"},{"internalType":"uint256","name":"_distance","type":"uint256"},{"internalType":"uint256","name":"_weight","type":"uint256"},{"internalType":"string","name":"_cargoType","type":"string"},{"internalType":"uint256","name":"_urgencyDays","type":"uint256"},{"internalType":"uint256","name":"_expirationMinutes","type":"uint256"}],"name":"createTender","outputs":[{"internalType":"uint256","name":"","type":"uint256"}],"stateMutability":"nonpayable","type":"function"},{"inputs":[],"name":"getActiveTenders","outputs":[{"internalType":"uint256[]","name":"","type":"uint256[]"}],"stateMutability":"view","type":"function"},{"inputs":[{"internalType":"uint256","name":"_id","type":"uint256"}],"name":"getTender","outputs":[{"internalType":"uint256","name":"id","type":"uint256"},{"internalType":"string","name":"title","type":"string"},{"internalType":"string","name":"description","type":"string"},{"internalType":"uint256","name":"budget","type":"uint256"},{"internalType":"uint256","name":"deadline","type":"uint256"},{"internalType":"uint256","name":"distance","type":"uint256"},{"internalType":"uint256","name":"weight","type":"uint256"},{"internalType":"string","name":"cargoType","type":"string"},{"internalType":"uint256","name":"urgencyDays","type":"uint256"},{"internalType":"address","name":"creator","type":"address"},{"internalType":"address","name":"bidder","type":"address"},{"internalType":"enum TenderChain.TenderStatus","name":"status","type":"uint8"},{"internalType":"uint256","name":"createdAt","type":"uint256"},{"internalType":"uint256","name":"expiresAt","type":"uint256"}],"stateMutability":"view","type":"function"},{"inputs":[{"internalType":"uint256","name":"_id","type":"uint256"}],"name":"takeTender","outputs":[],"stateMutability":"nonpayable","type":"function"},{"inputs":[],"name":"tenderCount","outputs":[{"internalType":"uint256","name":"","type":"uint256"}],"stateMutability":"view","type":"function"},{"inputs":[{"internalType":"uint256","name":"","type":"uint256"}],"name":"tenders","outputs":[{"internalType":"uint256","name":"id","type":"uint256"},{"internalType":"string","name":"title","type":"string"},{"internalType":"string","name":"description","type":"string"},{"internalType":"uint256","name":"budget","type":"uint256"},{"internalType":"uint256","name":"deadline","type":"uint256"},{"internalType":"uint256","name":"distance","type":"uint256"},{"internalType":"uint256","name":"weight","type":"uint256"},{"internalType":"string","name":"cargoType","type":"string"},{"internalType":"uint256","name":"urgencyDays","type":"uint256"},{"internalType":"address","name":"creator","type":"address"},{"internalType":"address","name":"bidder","type":"address"},{"internalType":"enum TenderChain.TenderStatus","name":"status","type":"uint8"},{"internalType":"uint256","name":"createdAt","type":"uint256"},{"internalType":"uint256","name":"expiresAt","type":"uint256"}],"stateMutability":"view","type":"function"}],"evm":{"bytecode":{"linkReferences":{},"object":"60808060405234610016576110e8908161001c8239f35b600080fdfe6080604052600436101561001257600080fd5b60003560e01c80630585c25e14610d655780631f05877614610d475780632ac6c78514610ba45780633a74e07014610a8b578063465e1def146109e857806357577b83146108cd578063659abb55146107605763666b5f371461007457600080fd5b3461075b5761012036600319011261075b5760043567ffffffffffffffff811161075b576100a6903690600401610ff0565b60243567ffffffffffffffff811161075b576100c6903690600401610ff0565b9060c43567ffffffffffffffff811161075b576100e7903690600401610ff0565b90610104359080511561072257604435156106dd57426064351115610698576001549261011384611047565b600155603c830292808404603c149015171561068257824201421161068257604051946101c0860186811067ffffffffffffffff8211176104cc5760405284865282602087015260408601526044356060860152606435608086015260843560a086015260a43560c086015260e085015260e4356101008501523361012085015260006101408501526000610160850152426101808501528142016101a0850152826000526000602052604060002084518155602085015180519067ffffffffffffffff82116104cc5781906101ec6001850154610eee565b601f811161062f575b50602090601f83116001146105bd576000926105b2575b50508160011b916000199060031b1c19161760018201555b604085015180519067ffffffffffffffff82116104cc57819061024a6002850154610eee565b601f811161055f575b50602090601f83116001146104ed576000926104e2575b50508160011b916000199060031b1c19161760028201555b606085015160038201556080850151600482015560a0850151600582015560c0850151600682015560e085015180519067ffffffffffffffff82116104cc5781906102d06007850154610eee565b601f8111610479575b50602090601f831160011461040c57600092610401575b50508160011b916000199060031b1c19161760078201555b61010085015160088201556101208501516009820180546001600160a01b0319166001600160a01b03928316179055610140860151600a830180546101608901519195909490939092169060058110156103eb5760209888967f3dbf6374bde9016468d4624c62c547cf43ae524b88d2ea7e255480407db3758c96600c946101a09460ff60a01b9060a01b16916affffffffffffffffffffff60a81b1617179055610180810151600b85015501519101556103ce60405191606083526060830190610e13565b9360443587830152420160408201528033940390a3604051908152f35b634e487b7160e01b600052602160045260246000fd5b0151905038806102f0565b600785016000908152602081209350601f198516905b8181106104615750908460019594939210610448575b505050811b016007820155610308565b015160001960f88460031b161c19169055388080610438565b92936020600181928786015181550195019301610422565b909150600784016000526020600020601f840160051c8101602085106104c5575b90849392915b601f830160051c820181106104b65750506102d9565b600081558594506001016104a0565b508061049a565b634e487b7160e01b600052604160045260246000fd5b01519050388061026a565b9250600284016000526020600020906000935b601f1984168510610544576001945083601f1981161061052b575b505050811b016002820155610282565b015160001960f88460031b161c1916905538808061051b565b81810151835560209485019460019093019290910190610500565b909150600284016000526020600020601f840160051c8101602085106105ab575b90849392915b601f830160051c8201811061059c575050610253565b60008155859450600101610586565b5080610580565b01519050388061020c565b9250600184016000526020600020906000935b601f1984168510610614576001945083601f198116106105fb575b505050811b016001820155610224565b015160001960f88460031b161c191690553880806105eb565b818101518355602094850194600190930192909101906105d0565b909150600184016000526020600020601f840160051c81016020851061067b575b90849392915b601f830160051c8201811061066c5750506101f5565b60008155859450600101610656565b5080610650565b634e487b7160e01b600052601160045260246000fd5b60405162461bcd60e51b815260206004820152601e60248201527f446561646c696e65206d75737420626520696e207468652066757475726500006044820152606490fd5b60405162461bcd60e51b815260206004820152601d60248201527f427564676574206d7573742062652067726561746572207468616e20300000006044820152606490fd5b60405162461bcd60e51b8152602060048201526011602482015270151a5d1b19481a5cc81c995c5d5a5c9959607a1b6044820152606490fd5b600080fd5b3461075b5760208060031936011261075b5760043560008181528083526040902060098101546001600160a01b031661079a811515611056565b331461088857600a81019081549060ff8260a01c1660058110156103eb5761084e57600c0154421015610814576001600160a81b0319163360ff60a01b19811691909117600160a11b1790915560405142815290927f2d219e8fc54d0eaeb33a8ba01ccc277da4ac9011e9dd7e7b4a80a0258edc0a9b91a3005b60405162461bcd60e51b815260048101859052601260248201527115195b99195c881a185cc8195e1c1a5c995960721b6044820152606490fd5b60405162461bcd60e51b81526004810186905260126024820152712a32b73232b91034b9903737ba1037b832b760711b6044820152606490fd5b60405162461bcd60e51b815260048101849052601b60248201527f43616e6e6f742074616b6520796f7572206f776e2074656e64657200000000006044820152606490fd5b3461075b57602036600319011261075b576004356000818152602081905260409020600a018054336001600160a01b038216036109995760ff8160a01c1660058110156103eb5760020361095b5760ff60a01b1916600360a01b1790556040514281523391907fc17b163892115f1fb664bffa8733edbcb472908a5b8a8858085c2687729b982a90602090a3005b60405162461bcd60e51b815260206004820152601660248201527515195b99195c881b5d5cdd08189948185dd85c99195960521b6044820152606490fd5b60405162461bcd60e51b815260206004820152602160248201527f4f6e6c792061737369676e6564206269646465722063616e20636f6d706c65746044820152606560f81b6064820152608490fd5b3461075b57602036600319011261075b57600435600052600060205260406000208054610a87610a1a60018401610f4a565b92610a2760028201610f4a565b90600381015460048201546005830154906006840154610a4960078601610f4a565b60088601549160018060a01b03948560098901541694600a89015497600c600b8b01549a01549a6040519e8f9e8f9a60ff8d60a01c169c169a610e53565b0390f35b3461075b57602036600319011261075b57600435600081815260208190526040902060098101546001600160a01b03163303610b5f57600a01805460ff8160a01c1660058110156103eb57610b1a5760ff60a01b1916600160a21b1790556040514281523391907f121260d8e5a90e25b8efcafc18268061d5e0ba4b7b58b6a9db4a60048e3582bb90602090a3005b60405162461bcd60e51b815260206004820152601c60248201527f43616e206f6e6c792063616e63656c206f70656e2074656e64657273000000006044820152606490fd5b60405162461bcd60e51b815260206004820152601760248201527f4f6e6c792063726561746f722063616e2063616e63656c0000000000000000006044820152606490fd5b3461075b57600036600319011261075b57600180546000805b828110610cdb575082610be8610bd28361109a565b92610be06040519485610f28565b80845261109a565b6020838101949091601f19013686376000805b828210610c3d5750505060405192818401908285525180915260408401949160005b828110610c2a5785870386f35b8351875295810195928101928401610c1d565b816000979597969496526000865260ff600a6040600020015460a01c16600590818110156103eb571580610cc2575b610c88575b5090610c7c90611047565b90959395949294610bfb565b8451821015610cac57818388610c7c94610ca6941b88010152611047565b90610c71565b634e487b7160e01b600052603260045260246000fd5b508260005260008752600c604060002001544210610c6c565b8060005260206000815260ff600a6040600020015460a01c1660058110156103eb57159081610d2e575b50610d19575b610d1490611047565b610bbd565b90610d26610d1491611047565b919050610d0b565b6000915082825252600c60406000200154421085610d05565b3461075b57600036600319011261075b576020600154604051908152f35b3461075b57602036600319011261075b576004356000526000602052604060002060018060a01b03610a878160098401541691610da3831515611056565b835492600385015494600481015492600582015492600683015492600881015490600a81015494600b82015496600c83015498610de260018501610f4a565b9c610dfb6007610df460028801610f4a565b9601610f4a565b946040519e8f9e8f9a60ff8d60a01c169c169a610e53565b919082519283825260005b848110610e3f575050826000602080949584010152601f8019910116010190565b602081830181015184830182015201610e1e565b9a97949192989e9d9c9998610e80610eb098959794610e8e938e528d6101c0908160208201520190610e13565b8c810360408e015290610e13565b9460608b015260808a015260a089015260c088015286820360e0880152610e13565b6101008501989098526001600160a01b039182166101208501521661014083015260058310156103eb576101a0926101608301526101808201520152565b90600182811c92168015610f1e575b6020831014610f0857565b634e487b7160e01b600052602260045260246000fd5b91607f1691610efd565b90601f8019910116810190811067ffffffffffffffff8211176104cc57604052565b9060405191826000825492610f5e84610eee565b908184526001948581169081600014610fcd5750600114610f8a575b5050610f8892500383610f28565b565b9093915060005260209081600020936000915b818310610fb5575050610f8893508201013880610f7a565b85548884018501529485019487945091830191610f9d565b915050610f8894506020925060ff191682840152151560051b8201013880610f7a565b81601f8201121561075b5780359067ffffffffffffffff82116104cc5760405192611025601f8401601f191660200185610f28565b8284526020838301011161075b57816000926020809301838601378301015290565b60001981146106825760010190565b1561105d57565b60405162461bcd60e51b815260206004820152601560248201527415195b99195c88191bd95cc81b9bdd08195e1a5cdd605a1b6044820152606490fd5b67ffffffffffffffff81116104cc5760051b6020019056fea264697066735822122032122b3ece22ffba9be8c5860bedcbc5384e2eb2b5372af268acdb52e59070c664736f6c63430008140033","opcodes":"PUSH1 0x80 DUP1 PUSH1 0x40 MSTORE CALLVALUE PUSH2 0x16 JUMPI PUSH2 0x10E8 SWAP1 DUP2 PUSH2 0x1C DUP3 CODECOPY RETURN JUMPDEST PUSH1 0x0 DUP1 REVERT INVALID PUSH1 0x80 PUSH1 0x40 MSTORE PUSH1 0x4 CALLDATASIZE LT ISZERO PUSH2 0x12 JUMPI PUSH1 0x0 DUP1 REVERT JUMPDEST PUSH1 0x0 CALLDATALOAD PUSH1 0xE0 SHR DUP1 PUSH4 0x585C25E EQ PUSH2 0xD65 JUMPI DUP1 PUSH4 0x1F058776 EQ PUSH2 0xD47 JUMPI DUP1 PUSH4 0x2AC6C785 EQ PUSH2 0xBA4 JUMPI DUP1 PUSH4 0x3A74E070 EQ PUSH2 0xA8B JUMPI DUP1 PUSH4 0x465E1DEF EQ PUSH2 0x9E8 JUMPI DUP1 PUSH4 0x57577B83 EQ PUSH2 0x8CD JUMPI DUP1 PUSH4 0x659ABB55 EQ PUSH2 0x760 JUMPI PUSH4 0x666B5F37 EQ PUSH2 0x74 JUMPI PUSH1 0x0 DUP1 REVERT JUMPDEST CALLVALUE PUSH2 0x75B JUMPI PUSH2 0x120 CALLDATASIZE PUSH1 0x3 NOT ADD SLT PUSH2 0x75B JUMPI PUSH1 0x4 CALLDATALOAD PUSH8 0xFFFFFFFFFFFFFFFF DUP2 GT PUSH2 0x75B JUMPI PUSH2 0xA6 SWAP1 CALLDATASIZE SWAP1 PUSH1 0x4 ADD PUSH2 0xFF0 JUMP JUMPDEST PUSH1 0x24 CALLDATALOAD PUSH8 0xFFFFFFFFFFFFFFFF DUP2 GT PUSH2 0x75B JUMPI PUSH2 0xC6 SWAP1 CALLDATASIZE SWAP1 PUSH1 0x4 ADD PUSH2 0xFF0 JUMP JUMPDEST SWAP1 PUSH1 0xC4 CALLDATALOAD PUSH8 0xFFFFFFFFFFFFFFFF DUP2 GT PUSH2 0x75B JUMPI PUSH2 0xE7 SWAP1 CALLDATASIZE SWAP1 PUSH1 0x4 ADD PUSH2 0xFF0 JUMP JUMPDEST SWAP1 PUSH2 0x104 CALLDATALOAD SWAP1 DUP1 MLOAD ISZERO PUSH2 0x722 JUMPI PUSH1 0x44 CALLDATALOAD ISZERO PUSH2 0x6DD JUMPI TIMESTAMP PUSH1 0x64 CALLDATALOAD GT ISZERO PUSH2 0x698 JUMPI PUSH1 0x1 SLOAD SWAP3 PUSH2 0x113 DUP5 PUSH2 0x1047 JUMP JUMPDEST PUSH1 0x1 SSTORE PUSH1 0x3C DUP4 MUL SWAP3 DUP1 DUP5 DIV PUSH1 0x3C EQ SWAP1 ISZERO OR ISZERO PUSH2 0x682 JUMPI DUP3 TIMESTAMP ADD TIMESTAMP GT PUSH2 0x682 JUMPI PUSH1 0x40 MLOAD SWAP5 PUSH2 0x1C0 DUP7 ADD DUP7 DUP2 LT PUSH8 0xFFFFFFFFFFFFFFFF DUP3 GT OR PUSH2 0x4CC JUMPI PUSH1 0x40 MSTORE DUP5 DUP7 MSTORE DUP3 PUSH1 0x20 DUP8 ADD MSTORE PUSH1 0x40 DUP7 ADD MSTORE PUSH1 0x44 CALLDATALOAD PUSH1 0x60 DUP7 ADD MSTORE PUSH1 0x64 CALLDATALOAD PUSH1 0x80 DUP7 ADD MSTORE PUSH1 0x84 CALLDATALOAD PUSH1 0xA0 DUP7 ADD MSTORE PUSH1 0xA4 CALLDATALOAD PUSH1 0xC0 DUP7 ADD MSTORE PUSH1 0xE0 DUP6 ADD MSTORE PUSH1 0xE4 CALLDATALOAD PUSH2 0x100 DUP6 ADD MSTORE CALLER PUSH2 0x120 DUP6 ADD MSTORE PUSH1 0x0 PUSH2 0x140 DUP6 ADD MSTORE PUSH1 0x0 PUSH2 0x160 DUP6 ADD MSTORE TIMESTAMP PUSH2 0x180 DUP6 ADD MSTORE DUP2 TIMESTAMP ADD PUSH2 0x1A0 DUP6 ADD MSTORE DUP3 PUSH1 0x0 MSTORE PUSH1 0x0 PUSH1 0x20 MSTORE PUSH1 0x40 PUSH1 0x0 KECCAK256 DUP5 MLOAD DUP2 SSTORE PUSH1 0x20 DUP6 ADD MLOAD DUP1 MLOAD SWAP1 PUSH8 0xFFFFFFFFFFFFFFFF DUP3 GT PUSH2 0x4CC JUMPI DUP2 SWAP1 PUSH2 0x1EC PUSH1 0x1 DUP6 ADD SLOAD PUSH2 0xEEE JUMP JUMPDEST PUSH1 0x1F DUP2 GT PUSH2 0x62F JUMPI JUMPDEST POP PUSH1 0x20 SWAP1 PUSH1 0x1F DUP4 GT PUSH1 0x1 EQ PUSH2 0x5BD JUMPI PUSH1 0x0 SWAP3 PUSH2 0x5B2 JUMPI JUMPDEST POP POP DUP2 PUSH1 0x1 SHL SWAP2 PUSH1 0x0 NOT SWAP1 PUSH1 0x3 SHL SHR NOT AND OR PUSH1 0x1 DUP3 ADD SSTORE JUMPDEST PUSH1 0x40 DUP6 ADD MLOAD DUP1 MLOAD SWAP1 PUSH8 0xFFFFFFFFFFFFFFFF DUP3 GT PUSH2 0x4CC JUMPI DUP2 SWAP1 PUSH2 0x24A PUSH1 0x2 DUP6 ADD SLOAD PUSH2 0xEEE JUMP JUMPDEST PUSH1 0x1F DUP2 GT PUSH2 0x55F JUMPI JUMPDEST POP PUSH1 0x20 SWAP1 PUSH1 0x1F DUP4 GT PUSH1 0x1 EQ PUSH2 0x4ED JUMPI PUSH1 0x0 SWAP3 PUSH2 0x4E2 JUMPI JUMPDEST POP POP DUP2 PUSH1 0x1 SHL SWAP2 PUSH1 0x0 NOT SWAP1 PUSH1 0x3 SHL SHR NOT AND OR PUSH1 0x2 DUP3 ADD SSTORE JUMPDEST PUSH1 0x60 DUP6 ADD MLOAD PUSH1 0x3 DUP3 ADD SSTORE PUSH1 0x80 DUP6 ADD MLOAD PUSH1 0x4 DUP3 ADD SSTORE PUSH1 0xA0 DUP6 ADD MLOAD PUSH1 0x5 DUP3 ADD SSTORE PUSH1 0xC0 DUP6 ADD MLOAD PUSH1 0x6 DUP3 ADD SSTORE PUSH1 0xE0 DUP6 ADD MLOAD DUP1 MLOAD SWAP1 PUSH8 0xFFFFFFFFFFFFFFFF DUP3 GT PUSH2 0x4CC JUMPI DUP2 SWAP1 PUSH2 0x2D0 PUSH1 0x7 DUP6 ADD SLOAD PUSH2 0xEEE JUMP JUMPDEST PUSH1 0x1F DUP2 GT PUSH2 0x479 JUMPI JUMPDEST POP PUSH1 0x20 SWAP1 PUSH1 0x1F DUP4 GT PUSH1 0x1 EQ PUSH2 0x40C JUMPI PUSH1 0x0 SWAP3 PUSH2 0x401 JUMPI JUMPDEST POP POP DUP2 PUSH1 0x1 SHL SWAP2 PUSH1 0x0 NOT SWAP1 PUSH1 0x3 SHL SHR NOT AND OR PUSH1 0x7 DUP3 ADD SSTORE JUMPDEST PUSH2 0x100 DUP6 ADD MLOAD PUSH1 0x8 DUP3 ADD SSTORE PUSH2 0x120 DUP6 ADD MLOAD PUSH1 0x9 DUP3 ADD DUP1 SLOAD PUSH1 0x1 PUSH1 0x1 PUSH1 0xA0 SHL SUB NOT AND PUSH1 0x1 PUSH1 0x1 PUSH1 0xA0 SHL SUB SWAP3 DUP4 AND OR SWAP1 SSTORE PUSH2 0x140 DUP7 ADD MLOAD PUSH1 0xA DUP4 ADD DUP1 SLOAD PUSH2 0x160 DUP10 ADD MLOAD SWAP2 SWAP6 SWAP1 SWAP5 SWAP1 SWAP4 SWAP1 SWAP3 AND SWAP1 PUSH1 0x5 DUP2 LT ISZERO PUSH2 0x3EB JUMPI PUSH1 0x20 SWAP9 DUP9 SWAP7 PUSH32 0x3DBF6374BDE9016468D4624C62C547CF43AE524B88D2EA7E255480407DB3758C SWAP7 PUSH1 0xC SWAP5 PUSH2 0x1A0 SWAP5 PUSH1 0xFF PUSH1 0xA0 SHL SWAP1 PUSH1 0xA0 SHL AND SWAP2 PUSH11 0xFFFFFFFFFFFFFFFFFFFFFF PUSH1 0xA8 SHL AND OR OR SWAP1 SSTORE PUSH2 0x180 DUP2 ADD MLOAD PUSH1 0xB DUP6 ADD SSTORE ADD MLOAD SWAP2 ADD SSTORE PUSH2 0x3CE PUSH1 0x40 MLOAD SWAP2 PUSH1 0x60 DUP4 MSTORE PUSH1 0x60 DUP4 ADD SWAP1 PUSH2 0xE13 JUMP JUMPDEST SWAP4 PUSH1 0x44 CALLDATALOAD DUP8 DUP4 ADD MSTORE TIMESTAMP ADD PUSH1 0x40 DUP3 ADD MSTORE DUP1 CALLER SWAP5 SUB SWAP1 LOG3 PUSH1 0x40 MLOAD SWAP1 DUP2 MSTORE RETURN JUMPDEST PUSH4 0x4E487B71 PUSH1 0xE0 SHL PUSH1 0x0 MSTORE PUSH1 0x21 PUSH1 0x4 MSTORE PUSH1 0x24 PUSH1 0x0 REVERT JUMPDEST ADD MLOAD SWAP1 POP CODESIZE DUP1 PUSH2 0x2F0 JUMP JUMPDEST PUSH1 0x7 DUP6 ADD PUSH1 0x0 SWAP1 DUP2 MSTORE PUSH1 0x20 DUP2 KECCAK256 SWAP4 POP PUSH1 0x1F NOT DUP6 AND SWAP1 JUMPDEST DUP2 DUP2 LT PUSH2 0x461 JUMPI POP SWAP1 DUP5 PUSH1 0x1 SWAP6 SWAP5 SWAP4 SWAP3 LT PUSH2 0x448 JUMPI JUMPDEST POP POP POP DUP2 SHL ADD PUSH1 0x7 DUP3 ADD SSTORE PUSH2 0x308 JUMP JUMPDEST ADD MLOAD PUSH1 0x0 NOT PUSH1 0xF8 DUP5 PUSH1 0x3 SHL AND SHR NOT AND SWAP1 SSTORE CODESIZE DUP1 DUP1 PUSH2 0x438 JUMP JUMPDEST SWAP3 SWAP4 PUSH1 0x20 PUSH1 0x1 DUP2 SWAP3 DUP8 DUP7 ADD MLOAD DUP2 SSTORE ADD SWAP6 ADD SWAP4 ADD PUSH2 0x422 JUMP JUMPDEST SWAP1 SWAP2 POP PUSH1 0x7 DUP5 ADD PUSH1 0x0 MSTORE PUSH1 0x20 PUSH1 0x0 KECCAK256 PUSH1 0x1F DUP5 ADD PUSH1 0x5 SHR DUP2 ADD PUSH1 0x20 DUP6 LT PUSH2 0x4C5 JUMPI JUMPDEST SWAP1 DUP5 SWAP4 SWAP3 SWAP2 JUMPDEST PUSH1 0x1F DUP4 ADD PUSH1 0x5 SHR DUP3 ADD DUP2 LT PUSH2 0x4B6 JUMPI POP POP PUSH2 0x2D9 JUMP JUMPDEST PUSH1 0x0 DUP2 SSTORE DUP6 SWAP5 POP PUSH1 0x1 ADD PUSH2 0x4A0 JUMP JUMPDEST POP DUP1 PUSH2 0x49A JUMP JUMPDEST PUSH4 0x4E487B71 PUSH1 0xE0 SHL PUSH1 0x0 MSTORE PUSH1 0x41 PUSH1 0x4 MSTORE PUSH1 0x24 PUSH1 0x0 REVERT JUMPDEST ADD MLOAD SWAP1 POP CODESIZE DUP1 PUSH2 0x26A JUMP JUMPDEST SWAP3 POP PUSH1 0x2 DUP5 ADD PUSH1 0x0 MSTORE PUSH1 0x20 PUSH1 0x0 KECCAK256 SWAP1 PUSH1 0x0 SWAP4 JUMPDEST PUSH1 0x1F NOT DUP5 AND DUP6 LT PUSH2 0x544 JUMPI PUSH1 0x1 SWAP5 POP DUP4 PUSH1 0x1F NOT DUP2 AND LT PUSH2 0x52B JUMPI JUMPDEST POP POP POP DUP2 SHL ADD PUSH1 0x2 DUP3 ADD SSTORE PUSH2 0x282 JUMP JUMPDEST ADD MLOAD PUSH1 0x0 NOT PUSH1 0xF8 DUP5 PUSH1 0x3 SHL AND SHR NOT AND SWAP1 SSTORE CODESIZE DUP1 DUP1 PUSH2 0x51B JUMP JUMPDEST DUP2 DUP2 ADD MLOAD DUP4 SSTORE PUSH1 0x20 SWAP5 DUP6 ADD SWAP5 PUSH1 0x1 SWAP1 SWAP4 ADD SWAP3 SWAP1 SWAP2 ADD SWAP1 PUSH2 0x500 JUMP JUMPDEST SWAP1 SWAP2 POP PUSH1 0x2 DUP5 ADD PUSH1 0x0 MSTORE PUSH1 0x20 PUSH1 0x0 KECCAK256 PUSH1 0x1F DUP5 ADD PUSH1 0x5 SHR DUP2 ADD PUSH1 0x20 DUP6 LT PUSH2 0x5AB JUMPI JUMPDEST SWAP1 DUP5 SWAP4 SWAP3 SWAP2 JUMPDEST PUSH1 0x1F DUP4 ADD PUSH1 0x5 SHR DUP3 ADD DUP2 LT PUSH2 0x59C JUMPI POP POP PUSH2 0x253 JUMP JUMPDEST PUSH1 0x0 DUP2 SSTORE DUP6 SWAP5 POP PUSH1 0x1 ADD PUSH2 0x586 JUMP JUMPDEST POP DUP1 PUSH2 0x580 JUMP JUMPDEST ADD MLOAD SWAP1 POP CODESIZE DUP1 PUSH2 0x20C JUMP JUMPDEST SWAP3 POP PUSH1 0x1 DUP5 ADD PUSH1 0x0 MSTORE PUSH1 0x20 PUSH1 0x0 KECCAK256 SWAP1 PUSH1 0x0 SWAP4 JUMPDEST PUSH1 0x1F NOT DUP5 AND DUP6 LT PUSH2 0x614 JUMPI PUSH1 0x1 SWAP5 POP DUP4 PUSH1 0x1F NOT DUP2 AND LT PUSH2 0x5FB JUMPI JUMPDEST POP POP POP DUP2 SHL ADD PUSH1 0x1 DUP3 ADD SSTORE PUSH2 0x224 JUMP JUMPDEST ADD MLOAD PUSH1 0x0 NOT PUSH1 0xF8 DUP5 PUSH1 0x3 SHL AND SHR NOT AND SWAP1 SSTORE CODESIZE DUP1 DUP1 PUSH2 0x5EB JUMP JUMPDEST DUP2 DUP2 ADD MLOAD DUP4 SSTORE PUSH1 0x20 SWAP5 DUP6 ADD SWAP5 PUSH1 0x1 SWAP1 SWAP4 ADD SWAP3 SWAP1 SWAP2 ADD SWAP1 PUSH2 0x5D0 JUMP JUMPDEST SWAP1 SWAP2 POP PUSH1 0x1 DUP5 ADD PUSH1 0x0 MSTORE PUSH1 0x20 PUSH1 0x0 KECCAK256 PUSH1 0x1F DUP5 ADD PUSH1 0x5 SHR DUP2 ADD PUSH1 0x20 DUP6 LT PUSH2 0x67B JUMPI JUMPDEST SWAP1 DUP5 SWAP4 SWAP3 SWAP2 JUMPDEST PUSH1 0x1F DUP4 ADD PUSH1 0x5 SHR DUP3 ADD DUP2 LT PUSH2 0x66C JUMPI POP POP PUSH2 0x1F5 JUMP JUMPDEST PUSH1 0x0 DUP2 SSTORE DUP6 SWAP5 POP PUSH1 0x1 ADD PUSH2 0x656 JUMP JUMPDEST POP DUP1 PUSH2 0x650 JUMP JUMPDEST PUSH4 0x4E487B71 PUSH1 0xE0 SHL PUSH1 0x0 MSTORE PUSH1 0x11 PUSH1 0x4 MSTORE PUSH1 0x24 PUSH1 0x0 REVERT JUMPDEST PUSH1 0x40 MLOAD PUSH3 0x461BCD PUSH1 0xE5 SHL DUP2 MSTORE PUSH1 0x20 PUSH1 0x4 DUP3 ADD MSTORE PUSH1 0x1E PUSH1 0x24 DUP3 ADD MSTORE PUSH32 0x446561646C696E65206D75737420626520696E20746865206675747572650000 PUSH1 0x44 DUP3 ADD MSTORE PUSH1 0x64 SWAP1 REVERT JUMPDEST PUSH1 0x40 MLOAD PUSH3 0x461BCD PUSH1 0xE5 SHL DUP2 MSTORE PUSH1 0x20 PUSH1 0x4 DUP3 ADD MSTORE PUSH1 0x1D PUSH1 0x24 DUP3 ADD MSTORE PUSH32 0x427564676574206D7573742062652067726561746572207468616E2030000000 PUSH1 0x44 DUP3 ADD MSTORE PUSH1 0x64 SWAP1 REVERT JUMPDEST PUSH1 0x40 MLOAD PUSH3 0x461BCD PUSH1 0xE5 SHL DUP2 MSTORE PUSH1 0x20 PUSH1 0x4 DUP3 ADD MSTORE PUSH1 0x11 PUSH1 0x24 DUP3 ADD MSTORE PUSH17 0x151A5D1B19481A5CC81C995C5D5A5C9959 PUSH1 0x7A SHL PUSH1 0x44 DUP3 ADD MSTORE PUSH1 0x64 SWAP1 REVERT JUMPDEST PUSH1 0x0 DUP1 REVERT JUMPDEST CALLVALUE PUSH2 0x75B JUMPI PUSH1 0x20 DUP1 PUSH1 0x3 NOT CALLDATASIZE ADD SLT PUSH2 0x75B JUMPI PUSH1 0x4 CALLDATALOAD PUSH1 0x0 DUP2 DUP2 MSTORE DUP1 DUP4 MSTORE PUSH1 0x40 SWAP1 KECCAK256 PUSH1 0x9 DUP2 ADD SLOAD PUSH1 0x1 PUSH1 0x1 PUSH1 0xA0 SHL SUB AND PUSH2 0x79A DUP2 ISZERO ISZERO PUSH2 0x1056 JUMP JUMPDEST CALLER EQ PUSH2 0x888 JUMPI PUSH1 0xA DUP2 ADD SWAP1 DUP2 SLOAD SWAP1 PUSH1 0xFF DUP3 PUSH1 0xA0 SHR AND PUSH1 0x5 DUP2 LT ISZERO PUSH2 0x3EB JUMPI PUSH2 0x84E JUMPI PUSH1 0xC ADD SLOAD TIMESTAMP LT ISZERO PUSH2 0x814 JUMPI PUSH1 0x1 PUSH1 0x1 PUSH1 0xA8 SHL SUB NOT AND CALLER PUSH1 0xFF PUSH1 0xA0 SHL NOT DUP2 AND SWAP2 SWAP1 SWAP2 OR PUSH1 0x1 PUSH1 0xA1 SHL OR SWAP1 SWAP2 SSTORE PUSH1 0x40 MLOAD TIMESTAMP DUP2 MSTORE SWAP1 SWAP3 PUSH32 0x2D219E8FC54D0EAEB33A8BA01CCC277DA4AC9011E9DD7E7B4A80A0258EDC0A9B SWAP2 LOG3 STOP JUMPDEST PUSH1 0x40 MLOAD PUSH3 0x461BCD PUSH1 0xE5 SHL DUP2 MSTORE PUSH1 0x4 DUP2 ADD DUP6 SWAP1 MSTORE PUSH1 0x12 PUSH1 0x24 DUP3 ADD MSTORE PUSH18 0x15195B99195C881A185CC8195E1C1A5C9959 PUSH1 0x72 SHL PUSH1 0x44 DUP3 ADD MSTORE PUSH1 0x64 SWAP1 REVERT JUMPDEST PUSH1 0x40 MLOAD PUSH3 0x461BCD PUSH1 0xE5 SHL DUP2 MSTORE PUSH1 0x4 DUP2 ADD DUP7 SWAP1 MSTORE PUSH1 0x12 PUSH1 0x24 DUP3 ADD MSTORE PUSH18 0x2A32B73232B91034B9903737BA1037B832B7 PUSH1 0x71 SHL PUSH1 0x44 DUP3 ADD MSTORE PUSH1 0x64 SWAP1 REVERT JUMPDEST PUSH1 0x40 MLOAD PUSH3 0x461BCD PUSH1 0xE5 SHL DUP2 MSTORE PUSH1 0x4 DUP2 ADD DUP5 SWAP1 MSTORE PUSH1 0x1B PUSH1 0x24 DUP3 ADD MSTORE PUSH32 0x43616E6E6F742074616B6520796F7572206F776E2074656E6465720000000000 PUSH1 0x44 DUP3 ADD MSTORE PUSH1 0x64 SWAP1 REVERT JUMPDEST CALLVALUE PUSH2 0x75B JUMPI PUSH1 0x20 CALLDATASIZE PUSH1 0x3 NOT ADD SLT PUSH2 0x75B JUMPI PUSH1 0x4 CALLDATALOAD PUSH1 0x0 DUP2 DUP2 MSTORE PUSH1 0x20 DUP2 SWAP1 MSTORE PUSH1 0x40 SWAP1 KECCAK256 PUSH1 0xA ADD DUP1 SLOAD CALLER PUSH1 0x1 PUSH1 0x1 PUSH1 0xA0 SHL SUB DUP3 AND SUB PUSH2 0x999 JUMPI PUSH1 0xFF DUP2 PUSH1 0xA0 SHR AND PUSH1 0x5 DUP2 LT ISZERO PUSH2 0x3EB JUMPI PUSH1 0x2 SUB PUSH2 0x95B JUMPI PUSH1 0xFF PUSH1 0xA0 SHL NOT AND PUSH1 0x3 PUSH1 0xA0 SHL OR SWAP1 SSTORE PUSH1 0x40 MLOAD TIMESTAMP DUP2 MSTORE CALLER SWAP2 SWAP1 PUSH32 0xC17B163892115F1FB664BFFA8733EDBCB472908A5B8A8858085C2687729B982A SWAP1 PUSH1 0x20 SWAP1 LOG3 STOP JUMPDEST PUSH1 0x40 MLOAD PUSH3 0x461BCD PUSH1 0xE5 SHL DUP2 MSTORE PUSH1 0x20 PUSH1 0x4 DUP3 ADD MSTORE PUSH1 0x16 PUSH1 0x24 DUP3 ADD MSTORE PUSH22 0x15195B99195C881B5D5CDD08189948185DD85C991959 PUSH1 0x52 SHL PUSH1 0x44 DUP3 ADD MSTORE PUSH1 0x64 SWAP1 REVERT JUMPDEST PUSH1 0x40 MLOAD PUSH3 0x461BCD PUSH1 0xE5 SHL DUP2 MSTORE PUSH1 0x20 PUSH1 0x4 DUP3 ADD MSTORE PUSH1 0x21 PUSH1 0x24 DUP3 ADD MSTORE PUSH32 0x4F6E6C792061737369676E6564206269646465722063616E20636F6D706C6574 PUSH1 0x44 DUP3 ADD MSTORE PUSH1 0x65 PUSH1 0xF8 SHL PUSH1 0x64 DUP3 ADD MSTORE PUSH1 0x84 SWAP1 REVERT JUMPDEST CALLVALUE PUSH2 0x75B JUMPI PUSH1 0x20 CALLDATASIZE PUSH1 0x3 NOT ADD SLT PUSH2 0x75B JUMPI PUSH1 0x4 CALLDATALOAD PUSH1 0x0 MSTORE PUSH1 0x0 PUSH1 0x20 MSTORE PUSH1 0x40 PUSH1 0x0 KECCAK256 DUP1 SLOAD PUSH2 0xA87 PUSH2 0xA1A PUSH1 0x1 DUP5 ADD PUSH2 0xF4A JUMP JUMPDEST SWAP3 PUSH2 0xA27 PUSH1 0x2 DUP3 ADD PUSH2 0xF4A JUMP JUMPDEST SWAP1 PUSH1 0x3 DUP2 ADD SLOAD PUSH1 0x4 DUP3 ADD SLOAD PUSH1 0x5 DUP4 ADD SLOAD SWAP1 PUSH1 0x6 DUP5 ADD SLOAD PUSH2 0xA49 PUSH1 0x7 DUP7 ADD PUSH2 0xF4A JUMP JUMPDEST PUSH1 0x8 DUP7 ADD SLOAD SWAP2 PUSH1 0x1 DUP1 PUSH1 0xA0 SHL SUB SWAP5 DUP6 PUSH1 0x9 DUP10 ADD SLOAD AND SWAP5 PUSH1 0xA DUP10 ADD SLOAD SWAP8 PUSH1 0xC PUSH1 0xB DUP12 ADD SLOAD SWAP11 ADD SLOAD SWAP11 PUSH1 0x40 MLOAD SWAP15 DUP16 SWAP15 DUP16 SWAP11 PUSH1 0xFF DUP14 PUSH1 0xA0 SHR AND SWAP13 AND SWAP11 PUSH2 0xE53 JUMP JUMPDEST SUB SWAP1 RETURN JUMPDEST CALLVALUE PUSH2 0x75B JUMPI PUSH1 0x20 CALLDATASIZE PUSH1 0x3 NOT ADD SLT PUSH2 0x75B JUMPI PUSH1 0x4 CALLDATALOAD PUSH1 0x0 DUP2 DUP2 MSTORE PUSH1 0x20 DUP2 SWAP1 MSTORE PUSH1 0x40 SWAP1 KECCAK256 PUSH1 0x9 DUP2 ADD SLOAD PUSH1 0x1 PUSH1 0x1 PUSH1 0xA0 SHL SUB AND CALLER SUB PUSH2 0xB5F JUMPI PUSH1 0xA ADD DUP1 SLOAD PUSH1 0xFF DUP2 PUSH1 0xA0 SHR AND PUSH1 0x5 DUP2 LT ISZERO PUSH2 0x3EB JUMPI PUSH2 0xB1A JUMPI PUSH1 0xFF PUSH1 0xA0 SHL NOT AND PUSH1 0x1 PUSH1 0xA2 SHL OR SWAP1 SSTORE PUSH1 0x40 MLOAD TIMESTAMP DUP2 MSTORE CALLER SWAP2 SWAP1 PUSH32 0x121260D8E5A90E25B8EFCAFC18268061D5E0BA4B7B58B6A9DB4A60048E3582BB SWAP1 PUSH1 0x20 SWAP1 LOG3 STOP JUMPDEST PUSH1 0x40 MLOAD PUSH3 0x461BCD PUSH1 0xE5 SHL DUP2 MSTORE PUSH1 0x20 PUSH1 0x4 DUP3 ADD MSTORE PUSH1 0x1C PUSH1 0x24 DUP3 ADD MSTORE PUSH32 0x43616E206F6E6C792063616E63656C206F70656E2074656E6465727300000000 PUSH1 0x44 DUP3 ADD MSTORE PUSH1 0x64 SWAP1 REVERT JUMPDEST PUSH1 0x40 MLOAD PUSH3 0x461BCD PUSH1 0xE5 SHL DUP2 MSTORE PUSH1 0x20 PUSH1 0x4 DUP3 ADD MSTORE PUSH1 0x17 PUSH1 0x24 DUP3 ADD MSTORE PUSH32 0x4F6E6C792063726561746F722063616E2063616E63656C000000000000000000 PUSH1 0x44 DUP3 ADD MSTORE PUSH1 0x64 SWAP1 REVERT JUMPDEST CALLVALUE PUSH2 0x75B JUMPI PUSH1 0x0 CALLDATASIZE PUSH1 0x3 NOT ADD SLT PUSH2 0x75B JUMPI PUSH1 0x1 DUP1 SLOAD PUSH1 0x0 DUP1 JUMPDEST DUP3 DUP2 LT PUSH2 0xCDB JUMPI POP DUP3 PUSH2 0xBE8 PUSH2 0xBD2 DUP4 PUSH2 0x109A JUMP JUMPDEST SWAP3 PUSH2 0xBE0 PUSH1 0x40 MLOAD SWAP5 DUP6 PUSH2 0xF28 JUMP JUMPDEST DUP1 DUP5 MSTORE PUSH2 0x109A JUMP JUMPDEST PUSH1 0x20 DUP4 DUP2 ADD SWAP5 SWAP1 SWAP2 PUSH1 0x1F NOT ADD CALLDATASIZE DUP7 CALLDATACOPY PUSH1 0x0 DUP1 JUMPDEST DUP3 DUP3 LT PUSH2 0xC3D JUMPI POP POP POP PUSH1 0x40 MLOAD SWAP3 DUP2 DUP5 ADD SWAP1 DUP3 DUP6 MSTORE MLOAD DUP1 SWAP2 MSTORE PUSH1 0x40 DUP5 ADD SWAP5 SWAP2 PUSH1 0x0 JUMPDEST DUP3 DUP2 LT PUSH2 0xC2A JUMPI DUP6 DUP8 SUB DUP7 RETURN JUMPDEST DUP4 MLOAD DUP8 MSTORE SWAP6 DUP2 ADD SWAP6 SWAP3 DUP2 ADD SWAP3 DUP5 ADD PUSH2 0xC1D JUMP JUMPDEST DUP2 PUSH1 0x0 SWAP8 SWAP6 SWAP8 SWAP7 SWAP5 SWAP7 MSTORE PUSH1 0x0 DUP7 MSTORE PUSH1 0xFF PUSH1 0xA PUSH1 0x40 PUSH1 0x0 KECCAK256 ADD SLOAD PUSH1 0xA0 SHR AND PUSH1 0x5 SWAP1 DUP2 DUP2 LT ISZERO PUSH2 0x3EB JUMPI ISZERO DUP1 PUSH2 0xCC2 JUMPI JUMPDEST PUSH2 0xC88 JUMPI JUMPDEST POP SWAP1 PUSH2 0xC7C SWAP1 PUSH2 0x1047 JUMP JUMPDEST SWAP1 SWAP6 SWAP4 SWAP6 SWAP5 SWAP3 SWAP5 PUSH2 0xBFB JUMP JUMPDEST DUP5 MLOAD DUP3 LT ISZERO PUSH2 0xCAC JUMPI DUP2 DUP4 DUP9 PUSH2 0xC7C SWAP5 PUSH2 0xCA6 SWAP5 SHL DUP9 ADD ADD MSTORE PUSH2 0x1047 JUMP JUMPDEST SWAP1 PUSH2 0xC71 JUMP JUMPDEST PUSH4 0x4E487B71 PUSH1 0xE0 SHL PUSH1 0x0 MSTORE PUSH1 0x32 PUSH1 0x4 MSTORE PUSH1 0x24 PUSH1 0x0 REVERT JUMPDEST POP DUP3 PUSH1 0x0 MSTORE PUSH1 0x0 DUP8 MSTORE PUSH1 0xC PUSH1 0x40 PUSH1 0x0 KECCAK256 ADD SLOAD TIMESTAMP LT PUSH2 0xC6C JUMP JUMPDEST DUP1 PUSH1 0x0 MSTORE PUSH1 0x20 PUSH1 0x0 DUP2 MSTORE PUSH1 0xFF PUSH1 0xA PUSH1 0x40 PUSH1 0x0 KECCAK256 ADD SLOAD PUSH1 0xA0 SHR AND PUSH1 0x5 DUP2 LT ISZERO PUSH2 0x3EB JUMPI ISZERO SWAP1 DUP2 PUSH2 0xD2E JUMPI JUMPDEST POP PUSH2 0xD19 JUMPI JUMPDEST PUSH2 0xD14 SWAP1 PUSH2 0x1047 JUMP JUMPDEST PUSH2 0xBBD JUMP JUMPDEST SWAP1 PUSH2 0xD26 PUSH2 0xD14 SWAP2 PUSH2 0x1047 JUMP JUMPDEST SWAP2 SWAP1 POP PUSH2 0xD0B JUMP JUMPDEST PUSH1 0x0 SWAP2 POP DUP3 DUP3 MSTORE MSTORE PUSH1 0xC PUSH1 0x40 PUSH1 0x0 KECCAK256 ADD SLOAD TIMESTAMP LT DUP6 PUSH2 0xD05 JUMP JUMPDEST CALLVALUE PUSH2 0x75B JUMPI PUSH1 0x0 CALLDATASIZE PUSH1 0x3 NOT ADD SLT PUSH2 0x75B JUMPI PUSH1 0x20 PUSH1 0x1 SLOAD PUSH1 0x40 MLOAD SWAP1 DUP2 MSTORE RETURN JUMPDEST CALLVALUE PUSH2 0x75B JUMPI PUSH1 0x20 CALLDATASIZE PUSH1 0x3 NOT ADD SLT PUSH2 0x75B JUMPI PUSH1 0x4 CALLDATALOAD PUSH1 0x0 MSTORE PUSH1 0x0 PUSH1 0x20 MSTORE PUSH1 0x40 PUSH1 0x0 KECCAK256 PUSH1 0x1 DUP1 PUSH1 0xA0 SHL SUB PUSH2 0xA87 DUP2 PUSH1 0x9 DUP5 ADD SLOAD AND SWAP2 PUSH2 0xDA3 DUP4 ISZERO ISZERO PUSH2 0x1056 JUMP JUMPDEST DUP4 SLOAD SWAP3 PUSH1 0x3 DUP6 ADD SLOAD SWAP5 PUSH1 0x4 DUP2 ADD SLOAD SWAP3 PUSH1 0x5 DUP3 ADD SLOAD SWAP3 PUSH1 0x6 DUP4 ADD SLOAD SWAP3 PUSH1 0x8 DUP2 ADD SLOAD SWAP1 PUSH1 0xA DUP2 ADD SLOAD SWAP5 PUSH1 0xB DUP3 ADD SLOAD SWAP7 PUSH1 0xC DUP4 ADD SLOAD SWAP9 PUSH2 0xDE2 PUSH1 0x1 DUP6 ADD PUSH2 0xF4A JUMP JUMPDEST SWAP13 PUSH2 0xDFB PUSH1 0x7 PUSH2 0xDF4 PUSH1 0x2 DUP9 ADD PUSH2 0xF4A JUMP JUMPDEST SWAP7 ADD PUSH2 0xF4A JUMP JUMPDEST SWAP5 PUSH1 0x40 MLOAD SWAP15 DUP16 SWAP15 DUP16 SWAP11 PUSH1 0xFF DUP14 PUSH1 0xA0 SHR AND SWAP13 AND SWAP11 PUSH2 0xE53 JUMP JUMPDEST SWAP2 SWAP1 DUP3 MLOAD SWAP3 DUP4 DUP3 MSTORE PUSH1 0x0 JUMPDEST DUP5 DUP2 LT PUSH2 0xE3F JUMPI POP POP DUP3 PUSH1 0x0 PUSH1 0x20 DUP1 SWAP5 SWAP6 DUP5 ADD ADD MSTORE PUSH1 0x1F DUP1 NOT SWAP2 ADD AND ADD ADD SWAP1 JUMP JUMPDEST PUSH1 0x20 DUP2 DUP4 ADD DUP2 ADD MLOAD DUP5 DUP4 ADD DUP3 ADD MSTORE ADD PUSH2 0xE1E JUMP JUMPDEST SWAP11 SWAP8 SWAP5 SWAP2 SWAP3 SWAP9 SWAP15 SWAP14 SWAP13 SWAP10 SWAP9 PUSH2 0xE80 PUSH2 0xEB0 SWAP9 SWAP6 SWAP8 SWAP5 PUSH2 0xE8E SWAP4 DUP15 MSTORE DUP14 PUSH2 0x1C0 SWAP1 DUP2 PUSH1 0x20 DUP3 ADD MSTORE ADD SWAP1 PUSH2 0xE13 JUMP JUMPDEST DUP13 DUP2 SUB PUSH1 0x40 DUP15 ADD MSTORE SWAP1 PUSH2 0xE13 JUMP JUMPDEST SWAP5 PUSH1 0x60 DUP12 ADD MSTORE PUSH1 0x80 DUP11 ADD MSTORE PUSH1 0xA0 DUP10 ADD MSTORE PUSH1 0xC0 DUP9 ADD MSTORE DUP7 DUP3 SUB PUSH1 0xE0 DUP9 ADD MSTORE PUSH2 0xE13 JUMP JUMPDEST PUSH2 0x100 DUP6 ADD SWAP9 SWAP1 SWAP9 MSTORE PUSH1 0x1 PUSH1 0x1 PUSH1 0xA0 SHL SUB SWAP2 DUP3 AND PUSH2 0x120 DUP6 ADD MSTORE AND PUSH2 0x140 DUP4 ADD MSTORE PUSH1 0x5 DUP4 LT ISZERO PUSH2 0x3EB JUMPI PUSH2 0x1A0 SWAP3 PUSH2 0x160 DUP4 ADD MSTORE PUSH2 0x180 DUP3 ADD MSTORE ADD MSTORE JUMP JUMPDEST SWAP1 PUSH1 0x1 DUP3 DUP2 SHR SWAP3 AND DUP1 ISZERO PUSH2 0xF1E JUMPI JUMPDEST PUSH1 0x20 DUP4 LT EQ PUSH2 0xF08 JUMPI JUMP JUMPDEST PUSH4 0x4E487B71 PUSH1 0xE0 SHL PUSH1 0x0 MSTORE PUSH1 0x22 PUSH1 0x4 MSTORE PUSH1 0x24 PUSH1 0x0 REVERT JUMPDEST SWAP2 PUSH1 0x7F AND SWAP2 PUSH2 0xEFD JUMP JUMPDEST SWAP1 PUSH1 0x1F DUP1 NOT SWAP2 ADD AND DUP2 ADD SWAP1 DUP2 LT PUSH8 0xFFFFFFFFFFFFFFFF DUP3 GT OR PUSH2 0x4CC JUMPI PUSH1 0x40 MSTORE JUMP JUMPDEST SWAP1 PUSH1 0x40 MLOAD SWAP2 DUP3 PUSH1 0x0 DUP3 SLOAD SWAP3 PUSH2 0xF5E DUP5 PUSH2 0xEEE JUMP JUMPDEST SWAP1 DUP2 DUP5 MSTORE PUSH1 0x1 SWAP5 DUP6 DUP2 AND SWAP1 DUP2 PUSH1 0x0 EQ PUSH2 0xFCD JUMPI POP PUSH1 0x1 EQ PUSH2 0xF8A JUMPI JUMPDEST POP POP PUSH2 0xF88 SWAP3 POP SUB DUP4 PUSH2 0xF28 JUMP JUMPDEST JUMP JUMPDEST SWAP1 SWAP4 SWAP2 POP PUSH1 0x0 MSTORE PUSH1 0x20 SWAP1 DUP2 PUSH1 0x0 KECCAK256 SWAP4 PUSH1 0x0 SWAP2 JUMPDEST DUP2 DUP4 LT PUSH2 0xFB5 JUMPI POP POP PUSH2 0xF88 SWAP4 POP DUP3 ADD ADD CODESIZE DUP1 PUSH2 0xF7A JUMP JUMPDEST DUP6 SLOAD DUP9 DUP5 ADD DUP6 ADD MSTORE SWAP5 DUP6 ADD SWAP5 DUP8 SWAP5 POP SWAP2 DUP4 ADD SWAP2 PUSH2 0xF9D JUMP JUMPDEST SWAP2 POP POP PUSH2 0xF88 SWAP5 POP PUSH1 0x20 SWAP3 POP PUSH1 0xFF NOT AND DUP3 DUP5 ADD MSTORE ISZERO ISZERO PUSH1 0x5 SHL DUP3 ADD ADD CODESIZE DUP1 PUSH2 0xF7A JUMP JUMPDEST DUP2 PUSH1 0x1F DUP3 ADD SLT ISZERO PUSH2 0x75B JUMPI DUP1 CALLDATALOAD SWAP1 PUSH8 0xFFFFFFFFFFFFFFFF DUP3 GT PUSH2 0x4CC JUMPI PUSH1 0x40 MLOAD SWAP3 PUSH2 0x1025 PUSH1 0x1F DUP5 ADD PUSH1 0x1F NOT AND PUSH1 0x20 ADD DUP6 PUSH2 0xF28 JUMP JUMPDEST DUP3 DUP5 MSTORE PUSH1 0x20 DUP4 DUP4 ADD ADD GT PUSH2 0x75B JUMPI DUP2 PUSH1 0x0 SWAP3 PUSH1 0x20 DUP1 SWAP4 ADD DUP4 DUP7 ADD CALLDATACOPY DUP4 ADD ADD MSTORE SWAP1 JUMP JUMPDEST PUSH1 0x0 NOT DUP2 EQ PUSH2 0x682 JUMPI PUSH1 0x1 ADD SWAP1 JUMP JUMPDEST ISZERO PUSH2 0x105D JUMPI JUMP JUMPDEST PUSH1 0x40 MLOAD PUSH3 0x461BCD PUSH1 0xE5 SHL DUP2 MSTORE PUSH1 0x20 PUSH1 0x4 DUP3 ADD MSTORE PUSH1 0x15 PUSH1 0x24 DUP3 ADD MSTORE PUSH21 0x15195B99195C88191BD95CC81B9BDD08195E1A5CDD PUSH1 0x5A SHL PUSH1 0x44 DUP3 ADD MSTORE PUSH1 0x64 SWAP1 REVERT JUMPDEST PUSH8 0xFFFFFFFFFFFFFFFF DUP2 GT PUSH2 0x4CC JUMPI PUSH1 0x5 SHL PUSH1 0x20 ADD SWAP1 JUMP INVALID LOG2 PUSH5 0x6970667358 0x22 SLT KECCAK256 ORIGIN SLT 0x2B RETURNDATACOPY 0xCE 0x22 SELFDESTRUCT 0xBA SWAP12 0xE8 0xC5 DUP7 SIGNEXTEND 0xED 0xCB 0xC5 CODESIZE 0x4E 0x2E 0xB2 0xB5 CALLDATACOPY 0x2A CALLCODE PUSH9 0xACDB52E59070C66473 PUSH16 0x6C634300081400330000000000000000 "},"methodIdentifiers":{"cancelTender(uint256)":"3a74e070","completeTender(uint256)":"57577b83","createTender(string,string,uint256,uint256,uint256,uint256,string,uint256,uint256)":"666b5f37","getActiveTenders()":"2ac6c785","getTender(uint256)":"0585c25e","takeTender(uint256)":"659abb55","tenderCount()":"1f058776","tenders(uint256)":"465e1def"}}}}}