{"contracts/Tender.sol":{"Tender":{"abi":[{"anonymous":false,"inputs":[{"indexed":false,"internalType":"uint256","name":"tenderId","type":"uint256"},{"indexed":false,"internalType":"address","name":"bidder","type":"address"}],"name":"BidCommitted","type":"event"},{"anonymous":false,"inputs":[{"indexed":false,"internalType":"uint256","name":"tenderId","type":"uint256"},{"indexed":false,"internalType":"address","name":"bidder","type":"address"},{"indexed":false,"internalType":"uint256","name":"bidAmount","type":"uint256"}],"name":"BidRevealed","type":"event"},{"anonymous":false,"inputs":[{"indexed":false,"internalType":"uint256","name":"tenderId","type":"uint256"},{"indexed":false,"internalType":"address","name":"winner","type":"address"},{"indexed":false,"internalType":"uint256","name":"winningBid","type":"uint256"}],"name":"TenderClosed","type":"event"},{"anonymous":false,"inputs":[{"indexed":false,"internalType":"uint256","name":"tenderId","type":"uint256"},{"indexed":false,"internalType":"uint256","name":"distance","type":"uint256"},{"indexed":false,"internalType":"uint256","name":"weight","type":"uint256"},{"indexed":false,"internalType":"string","name":"cargoType","type":"string"},{"indexed":false,"internalType":"uint256","name":"urgencyDays","type":"uint256"},{"indexed":false,"internalType":"uint256","name":"commitEnd","type":"uint256"},{"indexed":false,"internalType":"uint256","name":"revealEnd","type":"uint256"},{"indexed":false,"internalType":"address","name":"creator","type":"address"}],"name":"TenderCreated","type":"event"},{"inputs":[{"internalType":"uint256","name":"","type":"uint256"},{"internalType":"address","name":"","type":"address"}],"name":"bids","outputs":[{"internalType":"bytes32","name":"commitHash","type":"bytes32"},{"internalType":"uint256","name":"revealedBid","type":"uint256"},{"internalType":"bool","name":"isRevealed","type":"bool"}],"stateMutability":"view","type":"function"},{"inputs":[{"internalType":"uint256","name":"tenderId","type":"uint256"}],"name":"closeTender","outputs":[],"stateMutability":"nonpayable","type":"function"},{"inputs":[{"internalType":"uint256","name":"tenderId","type":"uint256"},{"internalType":"bytes32","name":"bidHash","type":"bytes32"}],"name":"commitBid","outputs":[],"stateMutability":"nonpayable","type":"function"},{"inputs":[{"internalType":"uint256","name":"distance","type":"uint256"},{"internalType":"uint256","name":"weight","type":"uint256"},{"internalType":"string","name":"cargoType","type":"string"},{"internalType":"uint256","name":"urgencyDays","type":"uint256"},{"internalType":"uint256","name":"commitEnd","type":"uint256"},{"internalType":"uint256","name":"revealEnd","type":"uint256"}],"name":"createTender","outputs":[],"stateMutability":"nonpayable","type":"function"},{"inputs":[{"internalType":"uint256","name":"tenderId","type":"uint256"}],"name":"getTenderDetails","outputs":[{"internalType":"uint256","name":"distance","type":"uint256"},{"internalType":"uint256","name":"weight","type":"uint256"},{"internalType":"string","name":"cargoType","type":"string"},{"internalType":"uint256","name":"urgencyDays","type":"uint256"},{"internalType":"uint256","name":"commitEnd","type":"uint256"},{"internalType":"uint256","name":"revealEnd","type":"uint256"},{"internalType":"address","name":"creator","type":"address"},{"internalType":"bool","name":"isActive","type":"bool"}],"stateMutability":"view","type":"function"},{"inputs":[],"name":"nextTenderId","outputs":[{"internalType":"uint256","name":"","type":"uint256"}],"stateMutability":"view","type":"function"},{"inputs":[{"internalType":"uint256","name":"tenderId","type":"uint256"},{"internalType":"uint256","name":"bidAmount","type":"uint256"},{"internalType":"bytes32","name":"secret","type":"bytes32"}],"name":"revealBid","outputs":[],"stateMutability":"nonpayable","type":"function"},{"inputs":[{"internalType":"uint256","name":"","type":"uint256"}],"name":"tenders","outputs":[{"internalType":"uint256","name":"distance","type":"uint256"},{"internalType":"uint256","name":"weight","type":"uint256"},{"internalType":"string","name":"cargoType","type":"string"},{"internalType":"uint256","name":"urgencyDays","type":"uint256"},{"internalType":"uint256","name":"commitEnd","type":"uint256"},{"internalType":"uint256","name":"revealEnd","type":"uint256"},{"internalType":"address","name":"creator","type":"address"},{"internalType":"bool","name":"isActive","type":"bool"}],"stateMutability":"view","type":"function"}],"evm":{"bytecode":{"linkReferences":{},"object":"6080806040523461001b576001600055610c2e90816100218239f35b600080fdfe6080604052600436101561001257600080fd5b60003560e01c8062cda3da1461092f5780633f1ffcec146108c6578063465e1def146108595780634d380a0d1461067c57806353ee895d146105cd578063667c1a24146105af5780638766a1421461014a57639468cb611461007357600080fd5b3461014557604036600319011261014557600435806000526020600181526100a860ff60066040600020015460a01c16610bb8565b816000526001815260046040600020015442101561010c57816040917f0934ea4de468dcd0d9a335c5f97aa77955310c29631c93fbd01d95a00242ec41936000526002815282600020336000528152602435836000205582519182523390820152a1005b6064906040519062461bcd60e51b82526004820152601260248201527110dbdb5b5a5d081c1a185cd948195b99195960721b6044820152fd5b600080fd5b346101455760c03660031901126101455760443567ffffffffffffffff8111610145573660238201121561014557806004013567ffffffffffffffff811161046f57604051916101a4601f8301601f191660200184610a62565b81835236602483830101116101455781600092602460209301838601378301015242608435111561056a5760843560a435111561052557602435156104e0576004351561049b5760005490600019821461048557600182016000556040519161020c83610a45565b600435835260243560208401528160408401526064356060840152608435608084015260a43560a08401523360c0840152600160e08401528060005260016020526040600020928051845560208101516001850155604081015180519067ffffffffffffffff821161046f576102856002870154610a0b565b601f8111610428575b50602090601f83116001146103945791807f37e5632d3f3d3b36e8c2e626ec9c7cfefd048fa37f528271eaaca1c91fa10c0a9792600694600092610389575b50508160011b916000199060031b1c19161760028201555b606083015160038201556080830151600482015560a08301516005820155019060018060a01b0360c08201511682549160e060ff60a01b910151151560a01b16916affffffffffffffffffffff60a81b1617179055610366604051928392835260043560208401526024356040840152610100806060850152830190610b2a565b606435608083015260843560a083015260a43560c08301523360e08301520390a1005b0151905088806102cd565b906002870160005260206000209160005b601f19851681106104105750927f37e5632d3f3d3b36e8c2e626ec9c7cfefd048fa37f528271eaaca1c91fa10c0a979260019260069583601f198116106103f7575b505050811b0160028201556102e5565b015160001960f88460031b161c191690558880806103e7565b919260206001819286850151815501940192016103a5565b600287016000526020600020601f840160051c810160208510610468575b601f830160051c8201811061045c57505061028e565b60008155600101610446565b5080610446565b634e487b7160e01b600052604160045260246000fd5b634e487b7160e01b600052601160045260246000fd5b60405162461bcd60e51b815260206004820152601960248201527f44697374616e6365206d75737420626520706f736974697665000000000000006044820152606490fd5b60405162461bcd60e51b815260206004820152601760248201527f576569676874206d75737420626520706f7369746976650000000000000000006044820152606490fd5b60405162461bcd60e51b815260206004820152601b60248201527f52657665616c206d75737420626520616674657220636f6d6d697400000000006044820152606490fd5b60405162461bcd60e51b815260206004820152601c60248201527f436f6d6d697420656e64206d75737420626520696e20667574757265000000006044820152606490fd5b34610145576000366003190112610145576020600054604051908152f35b3461014557602036600319011261014557600435600052600160205260406000206040516105fa81610a45565b815481526106786001830154916020810192835261061a60028501610a84565b93846040830152600381015490816060840152600481015480608085015260066005830154928360a087015201549260ff60018060a01b038516948560c088015260a01c161515948560e08201525196519760405198899889610b6a565b0390f35b3461014557606036600319011261014557600435602435816000526020600181526106b460ff60066040600020015460a01c16610bb8565b8260005260018152600460406000200154421061081c5782600052600181526005604060002001544210156107e35760405181810190838252604435604082015260408152606081019181831067ffffffffffffffff84111761046f57826040528151902085600052600284526040600020336000528452604060002054036107b3577f86d2fbc9069d34216ebc65b38ce840528d3f8cac0c86d2aaa7ab6a9db8bc35d360608686868260005260028152604060002033600052815281600160406000200155826000526002815260406000203360005281526002604060002001600160ff1982541617905560405192835233908301526040820152a1005b60a46d125b9d985b1a59081c995d99585b60921b9160649462461bcd60e51b855285820152600e60848201520152fd5b6064906040519062461bcd60e51b82526004820152601260248201527114995d99585b081c1a185cd948195b99195960721b6044820152fd5b6064906040519062461bcd60e51b82526004820152601660248201527510dbdb5b5a5d081c1a185cd9481b9bdd08195b99195960521b6044820152fd5b34610145576020366003190112610145576004356000526001602052604060002080549061067860018201549161089260028201610a84565b936003820154916004810154600660058301549201549360405197889760ff8760a01c169660018060a01b03169589610b6a565b34610145576040366003190112610145576024356001600160a01b038116908190036101455760043560005260026020526040600020906000526020526060604060002080549060ff600260018301549201541690604051928352602083015215156040820152f35b34610145576020806003193601126101455760043590816000526001815261096460ff60066040600020015460a01c16610bb8565b816000526001815260056040600020015442106109ce578160006060927f6a8da3e80c8077fe06cc6c3f48b5c446dc3cd31ea4f93b87799de1498dfd6aa1948252600181526006604083200160ff60a01b19815416905560405192835282015260006040820152a1005b6064906040519062461bcd60e51b82526004820152601660248201527514995d99585b081c1a185cd9481b9bdd08195b99195960521b6044820152fd5b90600182811c92168015610a3b575b6020831014610a2557565b634e487b7160e01b600052602260045260246000fd5b91607f1691610a1a565b610100810190811067ffffffffffffffff82111761046f57604052565b90601f8019910116810190811067ffffffffffffffff82111761046f57604052565b9060405191826000825492610a9884610a0b565b908184526001948581169081600014610b075750600114610ac4575b5050610ac292500383610a62565b565b9093915060005260209081600020936000915b818310610aef575050610ac293508201013880610ab4565b85548884018501529485019487945091830191610ad7565b915050610ac294506020925060ff191682840152151560051b8201013880610ab4565b919082519283825260005b848110610b56575050826000602080949584010152601f8019910116010190565b602081830181015184830182015201610b35565b9693989794919260e09693610b9192895260208901526101008060408a0152880190610b2a565b6060870198909852608086015260a08501526001600160a01b031660c08401521515910152565b15610bbf57565b60405162461bcd60e51b815260206004820152601160248201527054656e646572206e6f742061637469766560781b6044820152606490fdfea2646970667358221220cd0199781a226a28a566e78ff2c9e0c25e7c0d5f82bb6594fd0d5d8c23d5290e64736f6c63430008140033","opcodes":"PUSH1 0x80 DUP1 PUSH1 0x40 MSTORE CALLVALUE PUSH2 0x1B JUMPI PUSH1 0x1 PUSH1 0x0 SSTORE PUSH2 0xC2E SWAP1 DUP2 PUSH2 0x21 DUP3 CODECOPY RETURN JUMPDEST PUSH1 0x0 DUP1 REVERT INVALID PUSH1 0x80 PUSH1 0x40 MSTORE PUSH1 0x4 CALLDATASIZE LT ISZERO PUSH2 0x12 JUMPI PUSH1 0x0 DUP1 REVERT JUMPDEST PUSH1 0x0 CALLDATALOAD PUSH1 0xE0 SHR DUP1 PUSH3 0xCDA3DA EQ PUSH2 0x92F JUMPI DUP1 PUSH4 0x3F1FFCEC EQ PUSH2 0x8C6 JUMPI DUP1 PUSH4 0x465E1DEF EQ PUSH2 0x859 JUMPI DUP1 PUSH4 0x4D380A0D EQ PUSH2 0x67C JUMPI DUP1 PUSH4 0x53EE895D EQ PUSH2 0x5CD JUMPI DUP1 PUSH4 0x667C1A24 EQ PUSH2 0x5AF JUMPI DUP1 PUSH4 0x8766A142 EQ PUSH2 0x14A JUMPI PUSH4 0x9468CB61 EQ PUSH2 0x73 JUMPI PUSH1 0x0 DUP1 REVERT JUMPDEST CALLVALUE PUSH2 0x145 JUMPI PUSH1 0x40 CALLDATASIZE PUSH1 0x3 NOT ADD SLT PUSH2 0x145 JUMPI PUSH1 0x4 CALLDATALOAD DUP1 PUSH1 0x0 MSTORE PUSH1 0x20 PUSH1 0x1 DUP2 MSTORE PUSH2 0xA8 PUSH1 0xFF PUSH1 0x6 PUSH1 0x40 PUSH1 0x0 KECCAK256 ADD SLOAD PUSH1 0xA0 SHR AND PUSH2 0xBB8 JUMP JUMPDEST DUP2 PUSH1 0x0 MSTORE PUSH1 0x1 DUP2 MSTORE PUSH1 0x4 PUSH1 0x40 PUSH1 0x0 KECCAK256 ADD SLOAD TIMESTAMP LT ISZERO PUSH2 0x10C JUMPI DUP2 PUSH1 0x40 SWAP2 PUSH32 0x934EA4DE468DCD0D9A335C5F97AA77955310C29631C93FBD01D95A00242EC41 SWAP4 PUSH1 0x0 MSTORE PUSH1 0x2 DUP2 MSTORE DUP3 PUSH1 0x0 KECCAK256 CALLER PUSH1 0x0 MSTORE DUP2 MSTORE PUSH1 0x24 CALLDATALOAD DUP4 PUSH1 0x0 KECCAK256 SSTORE DUP3 MLOAD SWAP2 DUP3 MSTORE CALLER SWAP1 DUP3 ADD MSTORE LOG1 STOP JUMPDEST PUSH1 0x64 SWAP1 PUSH1 0x40 MLOAD SWAP1 PUSH3 0x461BCD PUSH1 0xE5 SHL DUP3 MSTORE PUSH1 0x4 DUP3 ADD MSTORE PUSH1 0x12 PUSH1 0x24 DUP3 ADD MSTORE PUSH18 0x10DBDB5B5A5D081C1A185CD948195B991959 PUSH1 0x72 SHL PUSH1 0x44 DUP3 ADD MSTORE REVERT JUMPDEST PUSH1 0x0 DUP1 REVERT JUMPDEST CALLVALUE PUSH2 0x145 JUMPI PUSH1 0xC0 CALLDATASIZE PUSH1 0x3 NOT ADD SLT PUSH2 0x145 JUMPI PUSH1 0x44 CALLDATALOAD PUSH8 0xFFFFFFFFFFFFFFFF DUP2 GT PUSH2 0x145 JUMPI CALLDATASIZE PUSH1 0x23 DUP3 ADD SLT ISZERO PUSH2 0x145 JUMPI DUP1 PUSH1 0x4 ADD CALLDATALOAD PUSH8 0xFFFFFFFFFFFFFFFF DUP2 GT PUSH2 0x46F JUMPI PUSH1 0x40 MLOAD SWAP2 PUSH2 0x1A4 PUSH1 0x1F DUP4 ADD PUSH1 0x1F NOT AND PUSH1 0x20 ADD DUP5 PUSH2 0xA62 JUMP JUMPDEST DUP2 DUP4 MSTORE CALLDATASIZE PUSH1 0x24 DUP4 DUP4 ADD ADD GT PUSH2 0x145 JUMPI DUP2 PUSH1 0x0 SWAP3 PUSH1 0x24 PUSH1 0x20 SWAP4 ADD DUP4 DUP7 ADD CALLDATACOPY DUP4 ADD ADD MSTORE TIMESTAMP PUSH1 0x84 CALLDATALOAD GT ISZERO PUSH2 0x56A JUMPI PUSH1 0x84 CALLDATALOAD PUSH1 0xA4 CALLDATALOAD GT ISZERO PUSH2 0x525 JUMPI PUSH1 0x24 CALLDATALOAD ISZERO PUSH2 0x4E0 JUMPI PUSH1 0x4 CALLDATALOAD ISZERO PUSH2 0x49B JUMPI PUSH1 0x0 SLOAD SWAP1 PUSH1 0x0 NOT DUP3 EQ PUSH2 0x485 JUMPI PUSH1 0x1 DUP3 ADD PUSH1 0x0 SSTORE PUSH1 0x40 MLOAD SWAP2 PUSH2 0x20C DUP4 PUSH2 0xA45 JUMP JUMPDEST PUSH1 0x4 CALLDATALOAD DUP4 MSTORE PUSH1 0x24 CALLDATALOAD PUSH1 0x20 DUP5 ADD MSTORE DUP2 PUSH1 0x40 DUP5 ADD MSTORE PUSH1 0x64 CALLDATALOAD PUSH1 0x60 DUP5 ADD MSTORE PUSH1 0x84 CALLDATALOAD PUSH1 0x80 DUP5 ADD MSTORE PUSH1 0xA4 CALLDATALOAD PUSH1 0xA0 DUP5 ADD MSTORE CALLER PUSH1 0xC0 DUP5 ADD MSTORE PUSH1 0x1 PUSH1 0xE0 DUP5 ADD MSTORE DUP1 PUSH1 0x0 MSTORE PUSH1 0x1 PUSH1 0x20 MSTORE PUSH1 0x40 PUSH1 0x0 KECCAK256 SWAP3 DUP1 MLOAD DUP5 SSTORE PUSH1 0x20 DUP2 ADD MLOAD PUSH1 0x1 DUP6 ADD SSTORE PUSH1 0x40 DUP2 ADD MLOAD DUP1 MLOAD SWAP1 PUSH8 0xFFFFFFFFFFFFFFFF DUP3 GT PUSH2 0x46F JUMPI PUSH2 0x285 PUSH1 0x2 DUP8 ADD SLOAD PUSH2 0xA0B JUMP JUMPDEST PUSH1 0x1F DUP2 GT PUSH2 0x428 JUMPI JUMPDEST POP PUSH1 0x20 SWAP1 PUSH1 0x1F DUP4 GT PUSH1 0x1 EQ PUSH2 0x394 JUMPI SWAP2 DUP1 PUSH32 0x37E5632D3F3D3B36E8C2E626EC9C7CFEFD048FA37F528271EAACA1C91FA10C0A SWAP8 SWAP3 PUSH1 0x6 SWAP5 PUSH1 0x0 SWAP3 PUSH2 0x389 JUMPI JUMPDEST POP POP DUP2 PUSH1 0x1 SHL SWAP2 PUSH1 0x0 NOT SWAP1 PUSH1 0x3 SHL SHR NOT AND OR PUSH1 0x2 DUP3 ADD SSTORE JUMPDEST PUSH1 0x60 DUP4 ADD MLOAD PUSH1 0x3 DUP3 ADD SSTORE PUSH1 0x80 DUP4 ADD MLOAD PUSH1 0x4 DUP3 ADD SSTORE PUSH1 0xA0 DUP4 ADD MLOAD PUSH1 0x5 DUP3 ADD SSTORE ADD SWAP1 PUSH1 0x1 DUP1 PUSH1 0xA0 SHL SUB PUSH1 0xC0 DUP3 ADD MLOAD AND DUP3 SLOAD SWAP2 PUSH1 0xE0 PUSH1 0xFF PUSH1 0xA0 SHL SWAP2 ADD MLOAD ISZERO ISZERO PUSH1 0xA0 SHL AND SWAP2 PUSH11 0xFFFFFFFFFFFFFFFFFFFFFF PUSH1 0xA8 SHL AND OR OR SWAP1 SSTORE PUSH2 0x366 PUSH1 0x40 MLOAD SWAP3 DUP4 SWAP3 DUP4 MSTORE PUSH1 0x4 CALLDATALOAD PUSH1 0x20 DUP5 ADD MSTORE PUSH1 0x24 CALLDATALOAD PUSH1 0x40 DUP5 ADD MSTORE PUSH2 0x100 DUP1 PUSH1 0x60 DUP6 ADD MSTORE DUP4 ADD SWAP1 PUSH2 0xB2A JUMP JUMPDEST PUSH1 0x64 CALLDATALOAD PUSH1 0x80 DUP4 ADD MSTORE PUSH1 0x84 CALLDATALOAD PUSH1 0xA0 DUP4 ADD MSTORE PUSH1 0xA4 CALLDATALOAD PUSH1 0xC0 DUP4 ADD MSTORE CALLER PUSH1 0xE0 DUP4 ADD MSTORE SUB SWAP1 LOG1 STOP JUMPDEST ADD MLOAD SWAP1 POP DUP9 DUP1 PUSH2 0x2CD JUMP JUMPDEST SWAP1 PUSH1 0x2 DUP8 ADD PUSH1 0x0 MSTORE PUSH1 0x20 PUSH1 0x0 KECCAK256 SWAP2 PUSH1 0x0 JUMPDEST PUSH1 0x1F NOT DUP6 AND DUP2 LT PUSH2 0x410 JUMPI POP SWAP3 PUSH32 0x37E5632D3F3D3B36E8C2E626EC9C7CFEFD048FA37F528271EAACA1C91FA10C0A SWAP8 SWAP3 PUSH1 0x1 SWAP3 PUSH1 0x6 SWAP6 DUP4 PUSH1 0x1F NOT DUP2 AND LT PUSH2 0x3F7 JUMPI JUMPDEST POP POP POP DUP2 SHL ADD PUSH1 0x2 DUP3 ADD SSTORE PUSH2 0x2E5 JUMP JUMPDEST ADD MLOAD PUSH1 0x0 NOT PUSH1 0xF8 DUP5 PUSH1 0x3 SHL AND SHR NOT AND SWAP1 SSTORE DUP9 DUP1 DUP1 PUSH2 0x3E7 JUMP JUMPDEST SWAP2 SWAP3 PUSH1 0x20 PUSH1 0x1 DUP2 SWAP3 DUP7 DUP6 ADD MLOAD DUP2 SSTORE ADD SWAP5 ADD SWAP3 ADD PUSH2 0x3A5 JUMP JUMPDEST PUSH1 0x2 DUP8 ADD PUSH1 0x0 MSTORE PUSH1 0x20 PUSH1 0x0 KECCAK256 PUSH1 0x1F DUP5 ADD PUSH1 0x5 SHR DUP2 ADD PUSH1 0x20 DUP6 LT PUSH2 0x468 JUMPI JUMPDEST PUSH1 0x1F DUP4 ADD PUSH1 0x5 SHR DUP3 ADD DUP2 LT PUSH2 0x45C JUMPI POP POP PUSH2 0x28E JUMP JUMPDEST PUSH1 0x0 DUP2 SSTORE PUSH1 0x1 ADD PUSH2 0x446 JUMP JUMPDEST POP DUP1 PUSH2 0x446 JUMP JUMPDEST PUSH4 0x4E487B71 PUSH1 0xE0 SHL PUSH1 0x0 MSTORE PUSH1 0x41 PUSH1 0x4 MSTORE PUSH1 0x24 PUSH1 0x0 REVERT JUMPDEST PUSH4 0x4E487B71 PUSH1 0xE0 SHL PUSH1 0x0 MSTORE PUSH1 0x11 PUSH1 0x4 MSTORE PUSH1 0x24 PUSH1 0x0 REVERT JUMPDEST PUSH1 0x40 MLOAD PUSH3 0x461BCD PUSH1 0xE5 SHL DUP2 MSTORE PUSH1 0x20 PUSH1 0x4 DUP3 ADD MSTORE PUSH1 0x19 PUSH1 0x24 DUP3 ADD MSTORE PUSH32 0x44697374616E6365206D75737420626520706F73697469766500000000000000 PUSH1 0x44 DUP3 ADD MSTORE PUSH1 0x64 SWAP1 REVERT JUMPDEST PUSH1 0x40 MLOAD PUSH3 0x461BCD PUSH1 0xE5 SHL DUP2 MSTORE PUSH1 0x20 PUSH1 0x4 DUP3 ADD MSTORE PUSH1 0x17 PUSH1 0x24 DUP3 ADD MSTORE PUSH32 0x576569676874206D75737420626520706F736974697665000000000000000000 PUSH1 0x44 DUP3 ADD MSTORE PUSH1 0x64 SWAP1 REVERT JUMPDEST PUSH1 0x40 MLOAD PUSH3 0x461BCD PUSH1 0xE5 SHL DUP2 MSTORE PUSH1 0x20 PUSH1 0x4 DUP3 ADD MSTORE PUSH1 0x1B PUSH1 0x24 DUP3 ADD MSTORE PUSH32 0x52657665616C206D75737420626520616674657220636F6D6D69740000000000 PUSH1 0x44 DUP3 ADD MSTORE PUSH1 0x64 SWAP1 REVERT JUMPDEST PUSH1 0x40 MLOAD PUSH3 0x461BCD PUSH1 0xE5 SHL DUP2 MSTORE PUSH1 0x20 PUSH1 0x4 DUP3 ADD MSTORE PUSH1 0x1C PUSH1 0x24 DUP3 ADD MSTORE PUSH32 0x436F6D6D697420656E64206D75737420626520696E2066757475726500000000 PUSH1 0x44 DUP3 ADD MSTORE PUSH1 0x64 SWAP1 REVERT JUMPDEST CALLVALUE PUSH2 0x145 JUMPI PUSH1 0x0 CALLDATASIZE PUSH1 0x3 NOT ADD SLT PUSH2 0x145 JUMPI PUSH1 0x20 PUSH1 0x0 SLOAD PUSH1 0x40 MLOAD SWAP1 DUP2 MSTORE RETURN JUMPDEST CALLVALUE PUSH2 0x145 JUMPI PUSH1 0x20 CALLDATASIZE PUSH1 0x3 NOT ADD SLT PUSH2 0x145 JUMPI PUSH1 0x4 CALLDATALOAD PUSH1 0x0 MSTORE PUSH1 0x1 PUSH1 0x20 MSTORE PUSH1 0x40 PUSH1 0x0 KECCAK256 PUSH1 0x40 MLOAD PUSH2 0x5FA DUP2 PUSH2 0xA45 JUMP JUMPDEST DUP2 SLOAD DUP2 MSTORE PUSH2 0x678 PUSH1 0x1 DUP4 ADD SLOAD SWAP2 PUSH1 0x20 DUP2 ADD SWAP3 DUP4 MSTORE PUSH2 0x61A PUSH1 0x2 DUP6 ADD PUSH2 0xA84 JUMP JUMPDEST SWAP4 DUP5 PUSH1 0x40 DUP4 ADD MSTORE PUSH1 0x3 DUP2 ADD SLOAD SWAP1 DUP2 PUSH1 0x60 DUP5 ADD MSTORE PUSH1 0x4 DUP2 ADD SLOAD DUP1 PUSH1 0x80 DUP6 ADD MSTORE PUSH1 0x6 PUSH1 0x5 DUP4 ADD SLOAD SWAP3 DUP4 PUSH1 0xA0 DUP8 ADD MSTORE ADD SLOAD SWAP3 PUSH1 0xFF PUSH1 0x1 DUP1 PUSH1 0xA0 SHL SUB DUP6 AND SWAP5 DUP6 PUSH1 0xC0 DUP9 ADD MSTORE PUSH1 0xA0 SHR AND ISZERO ISZERO SWAP5 DUP6 PUSH1 0xE0 DUP3 ADD MSTORE MLOAD SWAP7 MLOAD SWAP8 PUSH1 0x40 MLOAD SWAP9 DUP10 SWAP9 DUP10 PUSH2 0xB6A JUMP JUMPDEST SUB SWAP1 RETURN JUMPDEST CALLVALUE PUSH2 0x145 JUMPI PUSH1 0x60 CALLDATASIZE PUSH1 0x3 NOT ADD SLT PUSH2 0x145 JUMPI PUSH1 0x4 CALLDATALOAD PUSH1 0x24 CALLDATALOAD DUP2 PUSH1 0x0 MSTORE PUSH1 0x20 PUSH1 0x1 DUP2 MSTORE PUSH2 0x6B4 PUSH1 0xFF PUSH1 0x6 PUSH1 0x40 PUSH1 0x0 KECCAK256 ADD SLOAD PUSH1 0xA0 SHR AND PUSH2 0xBB8 JUMP JUMPDEST DUP3 PUSH1 0x0 MSTORE PUSH1 0x1 DUP2 MSTORE PUSH1 0x4 PUSH1 0x40 PUSH1 0x0 KECCAK256 ADD SLOAD TIMESTAMP LT PUSH2 0x81C JUMPI DUP3 PUSH1 0x0 MSTORE PUSH1 0x1 DUP2 MSTORE PUSH1 0x5 PUSH1 0x40 PUSH1 0x0 KECCAK256 ADD SLOAD TIMESTAMP LT ISZERO PUSH2 0x7E3 JUMPI PUSH1 0x40 MLOAD DUP2 DUP2 ADD SWAP1 DUP4 DUP3 MSTORE PUSH1 0x44 CALLDATALOAD PUSH1 0x40 DUP3 ADD MSTORE PUSH1 0x40 DUP2 MSTORE PUSH1 0x60 DUP2 ADD SWAP2 DUP2 DUP4 LT PUSH8 0xFFFFFFFFFFFFFFFF DUP5 GT OR PUSH2 0x46F JUMPI DUP3 PUSH1 0x40 MSTORE DUP2 MLOAD SWAP1 KECCAK256 DUP6 PUSH1 0x0 MSTORE PUSH1 0x2 DUP5 MSTORE PUSH1 0x40 PUSH1 0x0 KECCAK256 CALLER PUSH1 0x0 MSTORE DUP5 MSTORE PUSH1 0x40 PUSH1 0x0 KECCAK256 SLOAD SUB PUSH2 0x7B3 JUMPI PUSH32 0x86D2FBC9069D34216EBC65B38CE840528D3F8CAC0C86D2AAA7AB6A9DB8BC35D3 PUSH1 0x60 DUP7 DUP7 DUP7 DUP3 PUSH1 0x0 MSTORE PUSH1 0x2 DUP2 MSTORE PUSH1 0x40 PUSH1 0x0 KECCAK256 CALLER PUSH1 0x0 MSTORE DUP2 MSTORE DUP2 PUSH1 0x1 PUSH1 0x40 PUSH1 0x0 KECCAK256 ADD SSTORE DUP3 PUSH1 0x0 MSTORE PUSH1 0x2 DUP2 MSTORE PUSH1 0x40 PUSH1 0x0 KECCAK256 CALLER PUSH1 0x0 MSTORE DUP2 MSTORE PUSH1 0x2 PUSH1 0x40 PUSH1 0x0 KECCAK256 ADD PUSH1 0x1 PUSH1 0xFF NOT DUP3 SLOAD AND OR SWAP1 SSTORE PUSH1 0x40 MLOAD SWAP3 DUP4 MSTORE CALLER SWAP1 DUP4 ADD MSTORE PUSH1 0x40 DUP3 ADD MSTORE LOG1 STOP JUMPDEST PUSH1 0xA4 PUSH14 0x125B9D985B1A59081C995D99585B PUSH1 0x92 SHL SWAP2 PUSH1 0x64 SWAP5 PUSH3 0x461BCD PUSH1 0xE5 SHL DUP6 MSTORE DUP6 DUP3 ADD MSTORE PUSH1 0xE PUSH1 0x84 DUP3 ADD MSTORE ADD MSTORE REVERT JUMPDEST PUSH1 0x64 SWAP1 PUSH1 0x40 MLOAD SWAP1 PUSH3 0x461BCD PUSH1 0xE5 SHL DUP3 MSTORE PUSH1 0x4 DUP3 ADD MSTORE PUSH1 0x12 PUSH1 0x24 DUP3 ADD MSTORE PUSH18 0x14995D99585B081C1A185CD948195B991959 PUSH1 0x72 SHL PUSH1 0x44 DUP3 ADD MSTORE REVERT JUMPDEST PUSH1 0x64 SWAP1 PUSH1 0x40 MLOAD SWAP1 PUSH3 0x461BCD PUSH1 0xE5 SHL DUP3 MSTORE PUSH1 0x4 DUP3 ADD MSTORE PUSH1 0x16 PUSH1 0x24 DUP3 ADD MSTORE PUSH22 0x10DBDB5B5A5D081C1A185CD9481B9BDD08195B991959 PUSH1 0x52 SHL PUSH1 0x44 DUP3 ADD MSTORE REVERT JUMPDEST CALLVALUE PUSH2 0x145 JUMPI PUSH1 0x20 CALLDATASIZE PUSH1 0x3 NOT ADD SLT PUSH2 0x145 JUMPI PUSH1 0x4 CALLDATALOAD PUSH1 0x0 MSTORE PUSH1 0x1 PUSH1 0x20 MSTORE PUSH1 0x40 PUSH1 0x0 KECCAK256 DUP1 SLOAD SWAP1 PUSH2 0x678 PUSH1 0x1 DUP3 ADD SLOAD SWAP2 PUSH2 0x892 PUSH1 0x2 DUP3 ADD PUSH2 0xA84 JUMP JUMPDEST SWAP4 PUSH1 0x3 DUP3 ADD SLOAD SWAP2 PUSH1 0x4 DUP2 ADD SLOAD PUSH1 0x6 PUSH1 0x5 DUP4 ADD SLOAD SWAP3 ADD SLOAD SWAP4 PUSH1 0x40 MLOAD SWAP8 DUP9 SWAP8 PUSH1 0xFF DUP8 PUSH1 0xA0 SHR AND SWAP7 PUSH1 0x1 DUP1 PUSH1 0xA0 SHL SUB AND SWAP6 DUP10 PUSH2 0xB6A JUMP JUMPDEST CALLVALUE PUSH2 0x145 JUMPI PUSH1 0x40 CALLDATASIZE PUSH1 0x3 NOT ADD SLT PUSH2 0x145 JUMPI PUSH1 0x24 CALLDATALOAD PUSH1 0x1 PUSH1 0x1 PUSH1 0xA0 SHL SUB DUP2 AND SWAP1 DUP2 SWAP1 SUB PUSH2 0x145 JUMPI PUSH1 0x4 CALLDATALOAD PUSH1 0x0 MSTORE PUSH1 0x2 PUSH1 0x20 MSTORE PUSH1 0x40 PUSH1 0x0 KECCAK256 SWAP1 PUSH1 0x0 MSTORE PUSH1 0x20 MSTORE PUSH1 0x60 PUSH1 0x40 PUSH1 0x0 KECCAK256 DUP1 SLOAD SWAP1 PUSH1 0xFF PUSH1 0x2 PUSH1 0x1 DUP4 ADD SLOAD SWAP3 ADD SLOAD AND SWAP1 PUSH1 0x40 MLOAD SWAP3 DUP4 MSTORE PUSH1 0x20 DUP4 ADD MSTORE ISZERO ISZERO PUSH1 0x40 DUP3 ADD MSTORE RETURN JUMPDEST CALLVALUE PUSH2 0x145 JUMPI PUSH1 0x20 DUP1 PUSH1 0x3 NOT CALLDATASIZE ADD SLT PUSH2 0x145 JUMPI PUSH1 0x4 CALLDATALOAD SWAP1 DUP2 PUSH1 0x0 MSTORE PUSH1 0x1 DUP2 MSTORE PUSH2 0x964 PUSH1 0xFF PUSH1 0x6 PUSH1 0x40 PUSH1 0x0 KECCAK256 ADD SLOAD PUSH1 0xA0 SHR AND PUSH2 0xBB8 JUMP JUMPDEST DUP2 PUSH1 0x0 MSTORE PUSH1 0x1 DUP2 MSTORE PUSH1 0x5 PUSH1 0x40 PUSH1 0x0 KECCAK256 ADD SLOAD TIMESTAMP LT PUSH2 0x9CE JUMPI DUP2 PUSH1 0x0 PUSH1 0x60 SWAP3 PUSH32 0x6A8DA3E80C8077FE06CC6C3F48B5C446DC3CD31EA4F93B87799DE1498DFD6AA1 SWAP5 DUP3 MSTORE PUSH1 0x1 DUP2 MSTORE PUSH1 0x6 PUSH1 0x40 DUP4 KECCAK256 ADD PUSH1 0xFF PUSH1 0xA0 SHL NOT DUP2 SLOAD AND SWAP1 SSTORE PUSH1 0x40 MLOAD SWAP3 DUP4 MSTORE DUP3 ADD MSTORE PUSH1 0x0 PUSH1 0x40 DUP3 ADD MSTORE LOG1 STOP JUMPDEST PUSH1 0x64 SWAP1 PUSH1 0x40 MLOAD SWAP1 PUSH3 0x461BCD PUSH1 0xE5 SHL DUP3 MSTORE PUSH1 0x4 DUP3 ADD MSTORE PUSH1 0x16 PUSH1 0x24 DUP3 ADD MSTORE PUSH22 0x14995D99585B081C1A185CD9481B9BDD08195B991959 PUSH1 0x52 SHL PUSH1 0x44 DUP3 ADD MSTORE REVERT JUMPDEST SWAP1 PUSH1 0x1 DUP3 DUP2 SHR SWAP3 AND DUP1 ISZERO PUSH2 0xA3B JUMPI JUMPDEST PUSH1 0x20 DUP4 LT EQ PUSH2 0xA25 JUMPI JUMP JUMPDEST PUSH4 0x4E487B71 PUSH1 0xE0 SHL PUSH1 0x0 MSTORE PUSH1 0x22 PUSH1 0x4 MSTORE PUSH1 0x24 PUSH1 0x0 REVERT JUMPDEST SWAP2 PUSH1 0x7F AND SWAP2 PUSH2 0xA1A JUMP JUMPDEST PUSH2 0x100 DUP2 ADD SWAP1 DUP2 LT PUSH8 0xFFFFFFFFFFFFFFFF DUP3 GT OR PUSH2 0x46F JUMPI PUSH1 0x40 MSTORE JUMP JUMPDEST SWAP1 PUSH1 0x1F DUP1 NOT SWAP2 ADD AND DUP2 ADD SWAP1 DUP2 LT PUSH8 0xFFFFFFFFFFFFFFFF DUP3 GT OR PUSH2 0x46F JUMPI PUSH1 0x40 MSTORE JUMP JUMPDEST SWAP1 PUSH1 0x40 MLOAD SWAP2 DUP3 PUSH1 0x0 DUP3 SLOAD SWAP3 PUSH2 0xA98 DUP5 PUSH2 0xA0B JUMP JUMPDEST SWAP1 DUP2 DUP5 MSTORE PUSH1 0x1 SWAP5 DUP6 DUP2 AND SWAP1 DUP2 PUSH1 0x0 EQ PUSH2 0xB07 JUMPI POP PUSH1 0x1 EQ PUSH2 0xAC4 JUMPI JUMPDEST POP POP PUSH2 0xAC2 SWAP3 POP SUB DUP4 PUSH2 0xA62 JUMP JUMPDEST JUMP JUMPDEST SWAP1 SWAP4 SWAP2 POP PUSH1 0x0 MSTORE PUSH1 0x20 SWAP1 DUP2 PUSH1 0x0 KECCAK256 SWAP4 PUSH1 0x0 SWAP2 JUMPDEST DUP2 DUP4 LT PUSH2 0xAEF JUMPI POP POP PUSH2 0xAC2 SWAP4 POP DUP3 ADD ADD CODESIZE DUP1 PUSH2 0xAB4 JUMP JUMPDEST DUP6 SLOAD DUP9 DUP5 ADD DUP6 ADD MSTORE SWAP5 DUP6 ADD SWAP5 DUP8 SWAP5 POP SWAP2 DUP4 ADD SWAP2 PUSH2 0xAD7 JUMP JUMPDEST SWAP2 POP POP PUSH2 0xAC2 SWAP5 POP PUSH1 0x20 SWAP3 POP PUSH1 0xFF NOT AND DUP3 DUP5 ADD MSTORE ISZERO ISZERO PUSH1 0x5 SHL DUP3 ADD ADD CODESIZE DUP1 PUSH2 0xAB4 JUMP JUMPDEST SWAP2 SWAP1 DUP3 MLOAD SWAP3 DUP4 DUP3 MSTORE PUSH1 0x0 JUMPDEST DUP5 DUP2 LT PUSH2 0xB56 JUMPI POP POP DUP3 PUSH1 0x0 PUSH1 0x20 DUP1 SWAP5 SWAP6 DUP5 ADD ADD MSTORE PUSH1 0x1F DUP1 NOT SWAP2 ADD AND ADD ADD SWAP1 JUMP JUMPDEST PUSH1 0x20 DUP2 DUP4 ADD DUP2 ADD MLOAD DUP5 DUP4 ADD DUP3 ADD MSTORE ADD PUSH2 0xB35 JUMP JUMPDEST SWAP7 SWAP4 SWAP9 SWAP8 SWAP5 SWAP2 SWAP3 PUSH1 0xE0 SWAP7 SWAP4 PUSH2 0xB91 SWAP3 DUP10 MSTORE PUSH1 0x20 DUP10 ADD MSTORE PUSH2 0x100 DUP1 PUSH1 0x40 DUP11 ADD MSTORE DUP9 ADD SWAP1 PUSH2 0xB2A JUMP JUMPDEST PUSH1 0x60 DUP8 ADD SWAP9 SWAP1 SWAP9 MSTORE PUSH1 0x80 DUP7 ADD MSTORE PUSH1 0xA0 DUP6 ADD MSTORE PUSH1 0x1 PUSH1 0x1 PUSH1 0xA0 SHL SUB AND PUSH1 0xC0 DUP5 ADD MSTORE ISZERO ISZERO SWAP2 ADD MSTORE JUMP JUMPDEST ISZERO PUSH2 0xBBF JUMPI JUMP JUMPDEST PUSH1 0x40 MLOAD PUSH3 0x461BCD PUSH1 0xE5 SHL DUP2 MSTORE PUSH1 0x20 PUSH1 0x4 DUP3 ADD MSTORE PUSH1 0x11 PUSH1 0x24 DUP3 ADD MSTORE PUSH17 0x54656E646572206E6F7420616374697665 PUSH1 0x78 SHL PUSH1 0x44 DUP3 ADD MSTORE PUSH1 0x64 SWAP1 REVERT INVALID LOG2 PUSH5 0x6970667358 0x22 SLT KECCAK256 0xCD ADD SWAP10 PUSH25 0x1A226A28A566E78FF2C9E0C25E7C0D5F82BB6594FD0D5D8C23 0xD5 0x29 0xE PUSH5 0x736F6C6343 STOP ADDMOD EQ STOP CALLER "},"methodIdentifiers":{"bids(uint256,address)":"3f1ffcec","closeTender(uint256)":"00cda3da","commitBid(uint256,bytes32)":"9468cb61","createTender(uint256,uint256,string,uint256,uint256,uint256)":"8766a142","getTenderDetails(uint256)":"53ee895d","nextTenderId()":"667c1a24","revealBid(uint256,uint256,bytes32)":"4d380a0d","tenders(uint256)":"465e1def"}}}}}